:020000041000EA
:1000000000B5324B212058609868022188439860DF
:10001000D860186158612E4B002199600221596106
:100020000121F02299502B49196001219960352056
:1000300000F044F80222904214D00621196600F024
:1000400034F8196E01211966002018661A6600F04E
:100050002CF8196E196E196E052000F02FF8012189
:100060000842F9D1002199601B49196000215960AB
:100070001A491B48016001219960EB211966A021F2
:10008000196600F012F800219960164914480160C1
:100090000121996001BC002800D000471248134993
:1000A000086003C880F30888084703B5996A0420EC
:1000B0000142FBD001200142F8D103BD02B5186610
:1000C0001866FFF7F2FF186E186E02BD00000240BE
:1000D000000000180000070000035F00212200005C
:1000E000F4000018222000A00001001008ED00E03C
:1000F00000000000000000000000000074B24E7A12
:1001000000200420F7010010CB010010CD010010E9
:10011000C9010010C9010010C9010010C901001077
:10012000C9010010C9010010C9010010CF01001061
:10013000C9010010C9010010D1010010D301001045
:10014000C1010010C1010010C1010010C101001067
:10015000C1010010C1010010C1010010C101001057
:10016000C1010010C1010010C1010010C101001047
:10017000C1010010C1010010C1010010C101001037
:10018000C1010010C1010010C1010010C101001027
:10019000C1010010C1010010C1010010C101001017
:1001A000C1010010C1010010C1010010C101001007
:1001B000C1010010C1010010C1010010C1010010F7
:1001C000EFF30580103800BE00BE00BE00BE00BECA
:1001D00000BE00BEF2EB88718CE10110ACE10110B1
:1001E0003802001090A31AE71E481F49086006C88D
:1001F00081F3088810471D480068002801D019487D
:10020000F3E70DA40ECC002902D000F012F8F9E7B4
:100210001749184A002000E001C19142FCD116495B
:100220008847164988471649884700BEFDE701C937
:1002300001C29A42FBD37047ACE10110C00000201C
:10024000F8110020E4F20110000004200000042056
:10025000E4F201100010042000100420000000004F
:10026000704700000000000008ED00E0000000D032
:10027000F811002038A2002071890110D502001069
:1002800069890110F8B5C04606480749091A8B105C
:10029000C90FC91810B5491003D0044B002B00D06A
:1002A000984710BDF8110020F81100200000000050
:1002B000054B10B5002B03D00449054800E000BFF2
:1002C000FFF7E2FF10BDC04600000000D4A10020EF
:1002D00094B8011030B5032483B018F087FC204D8A
:1002E0002100280018F054FDFA20013C800015F090
:1002F000C5FA002CF4D11B4818F0C6FC80221A4D18
:1003000012020021280016F089FE2900174818F073
:100310003FFD174818F0B8FC802128000022090290
:100320000BF0E4FA051E16D0124818F0ADFC2800B8
:1003300000F07CF80D22104B10492800009411F0B9
:1003400089F90F4818F0A0FC280002F055F90D4873
:1003500018F09AFCFEE70C4818F096FCF7E7C04648
:1003600098B80110A0B8011000120020D0B80110F8
:10037000E4B801102CB9011048B9011050B90110AE
:1003800060B9011070B9011008B9011030B504004E
:100390001D0083B0012A05DD69461A6812F0DEFCF3
:1003A000002802D00F2003B030BD20006A6801A9E8
:1003B00012F0D4FC0028F5D10123009A9340019A51
:1003C000002A04D0D02212060B205361EBE7D02282
:1003D00012060B209361E6E730B504001D0083B0E0
:1003E000012A05DD69461A6812F0B8FC002802D01F
:1003F0000F2003B030BD20006A6801A912F0AEFCE6
:100400000028F5D1009814F02FFC0123009A9340A6
:10041000019A002A04D0D02212060B205362E8E78A
:10042000D02212060B209362E3E7C04670B50400A9
:1004300005F0BCFB0B2205000F49200005F006FC6F
:10044000290003000D4A200011F0C8FE0B222000F5
:100450000B4905F0FBFB290003000A4A200011F0BC
:10046000BDFE200002F02CF92B000100064A2000FE
:1004700011F0B4FE70BDC046D90300107CB9011064
:100480008D03001084B9011094B9011030B5140027
:100490001D00054B83B01A0020210094019518F02F
:1004A0001DFA03B030BDC046A0B9011030B514002C
:1004B0001D00054B83B01A0020210094019518F00F
:1004C0000DFA03B030BDC046A8B9011010B50B003D
:1004D0001021024A18F002FA10BDC046B0B901104E
:1004E00010B50B001021024A18F0F8F910BDC046F3
:1004F000B4B9011030B514001D00054B83B01A00CB
:1005000020210094019518F0E9F903B030BDC046F0
:10051000A0B90110002000217047C04630B514007A
:100520001D00054B83B01A0020210094019518F09E
:10053000D5F903B030BDC046B8B9011020207047CE
:10054000F8B5CE4647468C6880B5013CA04236D807
:100550008368A34233D9A5686D1034D1002A2ED107
:1005600066687310994620006A1C002192000C30C6
:1005700016F054FD4B46002B21DD032300279C463B
:10058000291D8900E81C091940000A68172A20D093
:1005900066469308324053402B409B00E318DA68CC
:1005A000013792009208904646468A68920F920759
:1005B00032438A60D8600C310630B945E5DCC0BCF6
:1005C000B946B046F8BD666873109946002DCADA80
:1005D000D0E70C310630B945D7DCF0E77047C046AC
:1005E000DB2824DCBE2809DC83280FDC7F281CDC08
:1005F00029281AD05D38431E984106E00D4BBF38BC
:10060000C34001201840012358407047912805DD60
:100610000123A238834280414042F6E78F23002223
:10062000C10F834251410800EFE70020EDE70120B0
:10063000EBE7C04681081C11F0B5027805001300F5
:10064000223BDBB2562B03D866489B00C3589F461B
:1006500002204042F0BD012410000C60FAE76B78E4
:10066000303B092B00D8A5E0012400200C60F1E705
:1006700001240A200C60EDE701240D200C60E9E75D
:10068000012409200C60E5E76B787B2B6ED01A0003
:10069000303A092A5ED9113A052A00D895E0203A65
:1006A000052A00D986E0573BAA781000303809287F
:1006B00000D884E01138052800D888E020380528C3
:1006C00078D8573AE8781B0113430200303A092AD8
:1006D00077D9113A052A7CD9203A052A6AD85738A1
:1006E0001B0118432B791A00303A092A6BD91A00DA
:1006F000413A052A73D91A00613A052A5AD8573B5C
:100700000524000118430C60A4E701240B200C60B1
:10071000A0E768780300303B092B47D90300413B31
:10072000052B19D90300613B052B43D85738AB780B
:100730001A00303A092A3BD91A00413A052A3CD915
:100740001A00613A052A35D8573B032400011843A3
:100750000C607FE71300A7E73738E8E7012408209B
:100760000C6077E701240C200C6073E788270020D9
:10077000AA1C7F0310E01E00413E052E14D91E0066
:10078000613E052E16D8573B00011843B84211DAD6
:10079000537801327D2B1ED0137814001E00303E9A
:1007A000092EE8D83300EFE7373BEDE71800BEE746
:1007B0001300CAE7012040424CE7373BC5E702007F
:1007C00080E710008CE713009AE7373B6CE7373A75
:1007D00078E7373884E70234641B0C603AE7373B2C
:1007E0008EE7C04658C7011003781B075B0F072B25
:1007F00026D8144A9B00D3589F4600680009013050
:10080000800070472820FCE70C20FAE70068000B06
:1008100080000C30F5E703230068C00904309843DA
:100820000430EEE703230078C006C01798430C306D
:10083000E7E7032300680009033098430430E0E74A
:100840000020DEE7B4C80110032370B50B40012B74
:1008500021D102684C1EA2421DD89268A2421AD928
:100860001E0022781640134215D101252A4322701A
:10087000B224D5B21207520FD44023420BD00E241B
:10088000436882682C409A1A0A2C05D0002A0BDD96
:10089000043B4360196070BD042A05DD1A1F083B44
:1008A000166043601960F6E701230361F3E7C04671
:1008B000F8B5C3684E469946436845469C460323AF
:1008C000DE4657469B46554BE0B5984605006246C6
:1008D00011004A4500D39BE008680432441E237887
:1008E0006A601B075B0F052B2CD022D8012B51D03F
:1008F000042BEDD128006168FFF7A6FF2800A1684E
:10090000FFF7A2FF2800E168FFF79EFF280021699A
:10091000FFF79AFF28006169FFF796FF2800E16959
:10092000FFF792FF2800216AFFF78EFF6B689C4655
:10093000CDE7072BCCD128006168FFF785FF6B68F6
:100940009C46C4E70B00226808334F689C466B60E6
:1009500013099A469F42BADA7A1C9200A61803E05D
:10096000013704365745B2DA5B4632681A40012A2D
:10097000F6D1BA45ABDD7B1C534502DA4B606960AA
:100980000860BB00E31859682800FFF75DFF6B683B
:100990009C469CE728006168FFF756FF2800A16885
:1009A000FFF752FF23881B051B0E1B2BBED84246A8
:1009B0009B00D3589F462800E168FFF745FF6B680E
:1009C0009C4684E72800E168FFF73EFF2800216984
:1009D000FFF73AFF6B689C4679E727002800E1683B
:1009E000FFF732FF236800261B0B1037012B9DD920
:1009F000280002CFFFF728FF236801361B0B013BBD
:100A0000B342F5DC92E723681B0B012B8ED9DDE79F
:100A1000F0BCBB46B246A946A046F8BDD4C80110FA
:100A2000F0B5D6464F4646469246C0B51568070013
:100A30008C4600260722012002E00136202E31D00C
:100A40002B001100EC083C5D99430C41013520421C
:100A5000F3D00023002E1DD0EB08B040F918192E5A
:100A600023DC03339C4520D94B780C781B022343AD
:100A70008C782A4024041C43CB781B062343202473
:100A8000A41BA21A1BBAD340421E1A40AE1935004D
:100A90001043431E524618001560E0BCBA46B146EA
:100AA000A846F0BD01235B42F4E7AE19731E9846D9
:100AB000072300229C4601246146EB08FB5CA94306
:100AC0000B4141462340491B8B4001351A43B54237
:100AD000F2D1DCE7F0B54E464546DE465746040007
:100AE0000200E0B5038C9434DB00E418803205008A
:100AF0000326836883B0944210D9300011680840FF
:100B0000012808D101398D4205D88B4203D90868E4
:100B10001060501C086004329442EED80321AA6E83
:100B20001140012909D1013A954206D8934204D9CE
:100B30001168A96629006931116003216A6F1140AB
:100B4000012909D1013A954206D8934204D9116886
:100B500069672900753111602A6903249A4210D20D
:100B6000200011680840012808D101398D4205D8BC
:100B70008B4203D908681060501C086004329A4206
:100B8000EED36A6B0324002A10D0200011680840BD
:100B9000012808D101398D4205D88B4203D9086854
:100BA0001060501C08605268002AEED1AA6B032422
:100BB000002A10D0200011680840012808D101390E
:100BC0008D4205D88B4203D908681060501C08601C
:100BD0005268002AEED1AA6A002A00D10AE2032054
:100BE000916A0840012809D101398D4206D88B420B
:100BF00004D9086890621000293008600320D16A87
:100C00000840012809D101398D4206D88B4204D908
:100C10000868D06210002D300860032091690840F8
:100C2000012809D101398D4206D88B4204D90868C0
:100C300090611000193008600320D16B0840012832
:100C400009D101398D4206D88B4204D90868D06396
:100C500010003D30086003200400116C0C40012C92
:100C60000BD101398D4200D9CCE18B4200D8C9E1CA
:100C70000C681464140041340C6069682F6888465D
:100C80008F4200D3CEE19B4643463C00A846032654
:100C9000B9461D0009E02000FFF7A6FD23781B07D9
:100CA0005B0F17D12418AC424CD2320023681A4093
:100CB000012AF0D1791C5A1E1368116032001A40C3
:100CC000012AF8D023602000FFF78EFD23781B0750
:100CD0005B0FE7D0052B00D197E000D983E0012B13
:100CE00000D1BEE0042B29D1032263681A40012AF7
:100CF00000D156E10322A3681A40012A00D13DE148
:100D00000322E3681A40012A00D124E10322236967
:100D10001A40012A00D10BE1032263691A40012A1B
:100D200000D1F2E00322E3691A40012A00D1D9E0A0
:100D30000322236A1A40012A00D1C5E03F18241873
:100D4000AC42B2D34F4603263C00320023681A401F
:100D5000012A3ED02000FFF747FD237881461B077C
:100D60005B0F09D0BC4206D00200210038001AF007
:100D70001BFC43465D684F444C44A542E5D84546BC
:100D8000AB6A2C686F60002B05D00322996A0A4079
:100D9000012A00D12BE1A74203D813E0A419A742EE
:100DA00010D92000FFF720FD237806001B075B0FFA
:100DB000012BF3D1210001222800A419FFF7C0FB69
:100DC000A742EED803B0F0BCBB46B246A946A04647
:100DD000F0BD791C5A1E1368116032001A40012AB6
:100DE000F8D02360B6E7072BA8D1032263681A4026
:100DF000012AA3D1013B9845A0D89B459ED91A68EA
:100E00003F186260621D1A6099E7220008CA00213B
:100E10001B099C4603239A466346002B00D18DE7AD
:100E2000434680466046A4461C0001975746136817
:100E30001F40012F0BD1013B9C4208D89B4506D98E
:100E400018681060501C186063461868000901316A
:100E500004328142EADB4046019FA0463F186446C7
:100E60006DE7032263681A40012A1ED00322A3689B
:100E70001A40012A09D023881B051B0E1B2B00D901
:100E80005CE7A04A9B00D3589F46013B9845F2D8A7
:100E90009B45F0D91A68A260220009321A602388A3
:100EA0001B051B0E1B2BECD948E7013B9845DDD8F1
:100EB0009B45DBD91A686260621D1A600322A36831
:100EC0001A40012AD7D1E0E7013B984500D935E720
:100ED0009B4500D832E71A683F182262220021326F
:100EE0001A602CE7013B984500D921E79B4500D8C3
:100EF0001EE71A68E26122001D321A600322236A8B
:100F00001A40012A00D019E7DEE7013B984500D9D5
:100F100008E79B4500D805E71A6862612200153290
:100F20001A600322E3691A40012A00D000E7D9E7DA
:100F3000013B984500D9EFE69B4500D8ECE61A68DE
:100F40002261220011321A60032263691A40012AC9
:100F500000D0E7E6D9E7013B984500D9D6E69B45A6
:100F600000D8D3E61A68E26022000D321A6003222C
:100F700023691A40012A00D0CEE6D9E7013B984503
:100F800000D9BDE69B4500D8BAE61A68A2602200E7
:100F900009321A600322E3681A40012A00D0B5E63C
:100FA000D9E7013B984500D9A4E69B4500D8A1E6C6
:100FB0001A686260621D1A600322A3681A40012A3F
:100FC00000D09DE6DAE70322E3681A40012A00D048
:100FD000B4E6013B984500D9B0E69B4500D8ADE6A4
:100FE0001A683F18E26022000D321A60A7E603314A
:100FF0001963D0E66A682F689046BA4200D942E683
:101000006F60DFE669682F6888468F4200D23AE653
:101010000321936A6F601940012900D0D2E603339F
:101020001363CFE6936A6F601840012800D0C9E6C9
:10103000F5E70322E3681A40012A09D1013B9845EC
:1010400006D89B4504D91A68E26022000D321A6066
:10105000032223691A40012A00D06FE6013B98451C
:1010600000D96BE69B4500D868E61A683F182261F4
:10107000220011321A6062E60322E3681A40012A54
:1010800035D023681B0B9C46012B00D856E6032362
:101090009A466346844628002200250000214446E3
:1010A0008046180010320197574613681F40012FE1
:1010B0000AD1013B9C4207D89B4505D918681060AE
:1010C000501C18602868000B0131431E04329942FD
:1010D000EADB43466046019FA0463F182C001D00F6
:1010E0002DE623681B0B012BB2D83F1827E6013BE6
:1010F0009845C6D89B45C4D91A68E26022000D32D3
:101100001A60BEE744C901100E22431E1978002060
:101110000A40022A06D11888FE231B0118402038F5
:10112000434258417047C04670B5C3071ED50323DC
:101130000340012B0BD01F22012302409340194A88
:1011400013422AD118481840431E984170BD431ECF
:101150001A781207520F022A0CD00120032AF5D167
:101160001B687E30984280414042EFE74010431EAA
:101170009841EBE75C689D6822002B002000290065
:1011800015F0D7FA00280AD10023002220002900F8
:1011900015F0ACFA43425841D8E74011D6E7002099
:1011A000D4E7C0468808000000000808F0B54E46A5
:1011B000DE4657464546E0B50B7895B0914603911B
:1011C000002B5FD00600C24A0292C24A0592039CDD
:1011D000252B18D063780134252B01D0002BF9D1B1
:1011E000039B9C420CD9E21AB368306871689B1863
:1011F000B3600D1A954200D91500002D00D05FE1B3
:101200002378002B3ED00023611C04201C000B78A7
:101210001A00203AD2B2102A03D8029D9200AA588E
:101220009746A3462A2B00D025E14A4620CA0B78D0
:10123000013920205F464C1C6C2B08D07A2B01D042
:10124000742B0AD121004B784C1C6C2BF6D10B78F7
:101250006C2BF7D121000743F5E7611CBB460391D6
:10126000252B00D1ADE1633BDBB2152B0AD80599E4
:101270009B00CB589F4604430131C8E7444663783E
:10128000002BA4D115B0F0BCBB46B246A946A0467F
:10129000F0BD022301311C43B9E7012301311C4396
:1012A000B5E7082301311C43B1E73B009B0600D49E
:1012B000A2E1072307329A4311000CC989460CA901
:1012C0000800049110210091FFF714F908275B46EC
:1012D00082461F40DB0748D4049B5F4698465A4627
:1012E00008231F40134200D0C0E0AA4500DAF7E00F
:1012F0003068B368716840E03B009B0600D471E140
:10130000072307329A4311000CC989460CA908002B
:101310000491FFF7BBF8824622E0130004CB90460D
:101320009946002A00D1A6E110001AF0FFF9824682
:101330005A4601239A43934691E00CAB190004935B
:10134000654B1A200B80130004CB06A98C469946E6
:101350001023604400930023FFF7CCF8831C9A46C7
:1013600008275B461F40DB07B6D5AA4500DAF2E046
:10137000049B306898467168B3685344B3600B1A95
:101380009B46534500D9D3465B46002B00D08FE0E7
:10139000002F00D173E7AA4500DB70E75346ED1A32
:1013A0002A00102D00DD102208AB202118009B46DA
:1013B000A04615F033FE306802E02D1B00D15DE73A
:1013C0002C00102D00DD1024B36877681B19B36062
:1013D0003F1AA74200D92700002FEED03A00594605
:1013E00015F022FE3068C0193060E6E73B009B062E
:1013F00000D518E1130002CB022799465B461F4037
:10140000CB0700D41CE103230B40012B00D137E1B3
:101410001F230B40DA1E182A00D946E12F489200FC
:10142000825897463B009B0600D4F2E00723073220
:101430009A4311000CC989460CA908000491FFF7D2
:1014400035F882468CE79146494608C90CAA894678
:1014500013703900012399438B469A46904608231E
:101460005F465A461F40134200D13EE708273068C6
:10147000B368716881E71A00303A0025092A0CD850
:101480002A009500AD186D000131EA180B78303A4A
:10149000180030380928F4D915004A46481C2E2B6C
:1014A00000D0C4E64B782A2B49D101000432BEE6B5
:1014B0005A46414615F0B8FD33685B44336067E730
:1014C0002A00039915F0B0FD33685B19336097E685
:1014D000B4C90110F8C901103078000050CA0110D9
:1014E0005346EF1A3A00102F78DC08AB9B462021B8
:1014F000180015F093FD5A463068A346B36871682A
:101500000695049201E07F1B16D03D00102F00DDF0
:1015100010255B19B3600C1AAC4200D92C00002CCA
:10152000F1D00499220015F07FFD3068B3680019EE
:10153000716830607F1BE8D15C46069D1DE7303B3B
:101540000100092B00D972E64B780131303B092BA1
:10155000FAD94A466BE65346EB1A98461A00102B06
:101560003EDC08AB9B463021180015F057FD069570
:10157000079745463700D8463068A346B368716878
:1015800001E02D1B16D02C00102D00DD10241B199E
:10159000BB600E1AA64200D92600002EF1D04146AB
:1015A000320015F041FD3868BB68801979683860F1
:1015B0002D1BE8D1049A3E005C469046069D079F8D
:1015C000DBE6B36871680133B3603368994247D191
:1015D00000239A460CAB91460493C1E6102284E79F
:1015E0001022BEE7130002CB99460CAB18000493FF
:1015F000FEF76CFF8246B3E6130004CB99460CABB2
:1016000018000493102300930023FEF773FF824613
:10161000A6E6130002CB99460CAB18000493FEF724
:101620005FFF82469CE6072307329A4301339946BF
:1016300002275B46116891441F40CB0700D5E2E6C4
:101640000CAB180049109846FEF74AFF8246002F5F
:1016500000D16DE65346002B00D169E6013B1DE049
:1016600021789146197033680133336000239A461C
:101670000CAB049374E604239A46314B984657E624
:101680004A1E13781B075B0F032B3CD006229246A1
:101690002C4A05239046002F00D149E64246D15CF2
:1016A0000A2900D044E69A4642E605229246264A96
:1016B00004239046EFE749117F2935D800230CAA6F
:1016C000C9B2049211705370002F28D10133904693
:1016D0009A462DE604229246194A03239046DAE7F9
:1016E000491116D004229246184A9046D3E709229F
:1016F0009246174A08239046CDE70D229246154A96
:101700000C239046C7E7CB1C98461368DB099A4622
:101710009DE705229246104A04239046BBE7904677
:10172000012200239246BBE70CAB9846180011F04B
:1017300023FF414682460B00002253441A7086E77D
:10174000BCB90110F0B90110E8B90110F8B90110E5
:10175000C4B90110D0B90110E0B901100CB4F0B552
:10176000056806006B1C87B0994204D807B0F0BC2E
:1017700008BC02B018470DAA4C1B231E019200D1D1
:1017800001230027013BEB180C9902A8039304974F
:101790000295FFF70BFD002C01D0029B1F70280063
:1017A00019F0C4FF2D183560E0E7C0460EB4030001
:1017B00030B50400002586B009AA583302CAFF33A9
:1017C000039302A83F3B029301920495FFF7EEFCBE
:1017D0002000029B01211D70783019F099FFC0464E
:1017E000F0B5C64600B5056B436B0400EA5C82B0F9
:1017F000EE182F2A1FD05C2A0ED0002A1BD052B21E
:10180000002A1FDB012301933078F3185B1B63630D
:1018100002B080BCB846F0BD7078731C9846B31C0B
:101820003F2819D90200443AD2B2392A2AD8394F6E
:101830009200BA589746A26B9342E3D320003649F0
:10184000FFF7B4FF0421300001AA11F0CFFE0028F9
:101850005ADB019B256BD8E7232813D90200243AD1
:10186000D2B2944601226746BA402C4F3A42CDD1BB
:101870002D2807D1002903D17122A25CD2063DD4C4
:101880002D20C3E7404601A9FEF7D6FE002828DB3D
:10189000019B4344BAE7B0782022070097433A00FF
:1018A000413A192A19D90200303A092A20D95F2869
:1018B0001ED07122A25CD20620D443465C20A5E74C
:1018C0001748A3E71748A1E717489FE717489DE780
:1018D0008020C0059AE7164898E71F22F31C1040A5
:1018E00094E77123E35CDB0612D47278464686E700
:1018F0000029DED07122A25CD206EED55B1B20004F
:101900000C496363FFF752FF20000B49FFF74EFFBE
:101910004346F3E7B4CA011030BA0110F10C0008D5
:1019200002000040010000400300004004000040AD
:101930000500004000BA011040BA0110024B0A0035
:1019400010B51900FFF732FF58BA011010B5014960
:10195000FFF72CFF68BA011010B50149FFF726FF09
:1019600078BA01100CB40B0030B5002587B00AAA74
:1019700002CA02AC013BC3180290200003930192FB
:101980000495FFF713FC0498029B1D7007B030BC50
:1019900008BC02B01847C046F0B54E464546DE4684
:1019A00057460369E0B5984689B0456807680593CE
:1019B000C36B02AC814602900E009B464046A56078
:1019C000BB4200D1D2E100264B461A8C94339B4691
:1019D0008423D20093444B449B4513D92A001D0015
:1019E000924633005E4602CD606020002361FEF720
:1019F0002BFF2000FEF75CFF60682369AE42F2D83F
:101A000055461E004B469B689A46984513D22B00BC
:101A10004546B84657469A4602CD6060200026618A
:101A2000FEF712FF2000FEF743FF60682669BD4203
:101A3000F2D3474655464B465B6B9846002B11D078
:101A40002B00454698462968606020002661FEF715
:101A5000FBFE2000FEF72CFF6D6860682669002DF4
:101A6000F1D145464B469B6B9846002B11D02B007D
:101A7000454698462968606020002661FEF7E4FE2E
:101A80002000FEF715FF6D6860682669002DF1D112
:101A900045464B469B6A9846002B2AD0996A60605F
:101AA00020002661FEF7D0FE2000FEF701FF43462E
:101AB0002000D96AFEF7C8FE2000FEF7F9FE434673
:101AC00020009969FEF7C0FE2000FEF7F1FE4346B4
:101AD0002000D96BFEF7B8FE2000FEF7E9FE434672
:101AE0002000196CFEF7B0FE2000FEF7E1FE6068F2
:101AF0002669002E20D00023CA469B46B946B64E22
:101B00004D4517D900234A469C4611780B075B0FB9
:101B1000072B00D9D1E09B00F3589F46032113689F
:101B20001B0903338B430433D2189542EDD8634627
:101B3000002BE5D14F46D14680234A46D358072B88
:101B400029D05A1E14689446240900D101E10321CA
:101B500000260022884603334046196808400128C1
:101B600007D1481E0078C00703D5B000604441602B
:101B7000013601320433A242EEDB4B46DE62002E18
:101B800000D1E8E0634601221B78134362461370DC
:101B9000A64200DA11E14B469A6E03231340012B53
:101BA00000D0AEE0013A1378DB0700D4A9E04B4641
:101BB0005A6F03231340012B00D092E0013A1378AF
:101BC000DB0700D48DE00E2301269846BD4206D8DF
:101BD00090E0B3433B702700A54200D88AE038006C
:101BE000FEF702FE3B7882463C181E42F1D1424687
:101BF0001340022B00D18EE0A54207D8A3E02000BD
:101C0000FEF7F2FD2418AC4200D37EE023781E429A
:101C1000F5D0E31B043B9B081B013B602700DBE77F
:101C200013681B0901339B009846012390440B4223
:101C300012D00E2319400A2902D15B4604380360F2
:101C40006346043801320260606020002361FEF7C1
:101C50002FFE236960689C46424666E72823984623
:101C6000273B90440B42E4D142465EE703211368D0
:101C7000DB0904338B430433D21856E70C3254E7A4
:101C800013681B0B9B000C339846012390440B42B6
:101C9000CFD1424649E713681B0901339B00D21894
:101CA00043E7012311780B40CF0613D50827B84628
:101CB0009044002BBDD1424637E701270F4200D1A7
:101CC00033E7B137DF403B0001271F4200D12CE74B
:101CD0009046AEE70C27B8469044002BA9D1424667
:101CE00023E707234A4653670E2301269846BD4241
:101CF00000D974E709B0F0BCBB46B246A946A0467D
:101D0000F0BD07234A46936651E7E31B043B9B085B
:101D10001B013B60EEE73B881B051B0E1B2B00D80D
:101D20006AE72E4A94464A466344D26C9B009B580D
:101D3000002B00D160E74846F96898474B465D683C
:101D4000A54200D962E75346043B9B081B013B6058
:101D5000D0E74B46DC62634601221B784946934339
:101D60006246137080230722CA5014E7002900D16D
:101D70002AE6C8235B005B4400269A462B00B8463F
:101D80005D4637009B4606000190691C2000666096
:101D90002761FEF759FD2000FEF78AFD2800FEF7B7
:101DA00023FD2D18666827695545EED3019B300049
:101DB0005D463E004746984606E66146A31B721CF8
:101DC0001B019200103B53500F230A683601134049
:101DD00033430B60DFE6C0469CCB0110E4FFFF3FBE
:101DE000F0B5C6461F2300B50C0088B00340451E61
:101DF0001B2B00D186E01F2323401B2B62D0601ECB
:101E00000768FF093B002A689446D20990461100F2
:101E10009A4200DD1900002939D000240435061D3E
:101E200002E00134A14232D02A5D335D9A42F8D0FB
:101E3000A1422CD028192D5D3F232A009A43802AE5
:101E400006D13F22013805782B009343802BF9D02F
:101E50006BB2002B00DA82E0335D3F2219003019AB
:101E6000914380291ED13F21013803781A008A430B
:101E7000802AF9D05AB2002A00DA7DE0802252028C
:101E800095421ADB012008B080BCB846F0BD62461E
:101E9000036800205A407F2AF5D9B845F2D20120C4
:101EA0004042F0E75AB2002A07DA01A911F01CFCFF
:101EB0008022030052029042F1DAAB42E2DD0120BF
:101EC0004042E0E77F2200206111E30F8A42434154
:101ED00005AE327830305B010340824313433370E8
:101EE0007F2934D80123012731712F3806AC002215
:101EF0002418227005987F320240F9010A4330000D
:101F0000059280E77F224111C30F00208A4243419E
:101F100002AD2A7830305B010340824313432B70BB
:101F20007F290DD8012229712F3803AE00233618DE
:101F3000337002997F33D2010B40134302935AE767
:101F400003AE300011F018FBC201D209EEE706AC77
:101F5000200011F011FBC701FF093B00C7E701A9F1
:101F600011F0C2FB335D3F22190005009143301987
:101F7000802900D177E77DE701A911F0B5FB802228
:101F800003005202954208DB904296DA084AAD12ED
:101F900094466544854282DB74E790428DDB044AB7
:101FA000831294466344AB4200DB78E701206AE782
:101FB000C0D70000F0B545465746DE464E46984627
:101FC0001F23E0B504000D00170087B00B401B2B4A
:101FD00000D183E04A1E1368DB099946117889060F
:101FE00010D54246002A00D073E07A0893469A4200
:101FF00000DD71E0584607B0F0BCBB46B246A946CA
:10200000A046F0BD4346002B56D101204B46384038
:1020100083467F080F2B00D89FE02300A16E683312
:102020008D4200D1F9E0636FAB427CD0A17F4E00BE
:1020300076180131C9B2881EB300461EB0419C46D5
:10204000404201406833A177E31841466444A566E5
:10205000260000248900F4663467591849685868D6
:102060009C68B9426ED94146002900D102E10021A5
:102070008946F02189003F258C469246161D019322
:10208000484500D8FBE05346411E5B181B79AB4323
:10209000802B00D0BBE00139735CAB43802BFAD0BE
:1020A000621E401A042800D19DE008001400BC42C2
:1020B000E6D10022019B6BE000239B464B460F2B91
:1020C000ABD8002B96D0002300249C4600204B4622
:1020D0004DE09F4224DC7B009B468BE77F22002063
:1020E0004911EB0F8A42434103AE327830305B0135
:1020F00003408243134333707F2900D9AAE00123B0
:1021000004AA9946924631712F3800217F2250440B
:1021100001700398D90102400A43039232005DE73F
:102120001F007B00D8E74146230089006118896FB2
:1021300074338F4200D8A6E0791A8F4200D875E731
:10214000A06FE46F4146002900D18CE09C464B46CD
:1021500048450CD343009B464CE7002F00D149E78C
:10216000B946002300249C4600204B46524FBC42F7
:1021700050D0111809790125661CBF2913DC3400E1
:1021800040199842F3D3634627000022002B01D068
:1021900058609F604346BB44002B00D12AE74000B3
:1021A0008346934426E7DF292DDDEF292DDDF7292E
:1021B000E5DC111D0D18095C019589018A46F021A5
:1021C000554689000D400199AA464D78A9463F25FC
:1021D00049460D40514629430F294EDDBE4265D088
:1021E00004250234CCE76046735C9B010340701801
:1021F0004078284003430F2B00DC56E7023CBA42EC
:1022000046D0080053E70225B9E70325B7E70800E1
:10221000013C4CE763460022B8E741468E00B446D5
:10222000A4446146C96EC81BB94200D2781AB842AC
:1022300000D3F8E6666FB54200D010E76546AD6F93
:10224000BD422AD3EE1BB04200D808E72300290084
:10225000743304E704AB18009A4611F08DF9C301FA
:10226000DB09994651E7B84224D2B9469C46124F41
:102270004B467CE7B946104FFBE604257FE7270075
:102280000022019B84E7CE1BB74200D9E7E6CDE6EA
:10229000270008000122019B7AE77D1BA84200D895
:1022A000DDE62300A06F7433E46F4BE7634627003D
:1022B00001226BE7A3449DE6FFFFFF7FF0B5C64612
:1022C00000B51F0084B001230C00FFF773FE1F232D
:1022D0000600450823401B2B0ED0013C2368DB0978
:1022E0009D424CD204346357605D6219002B2EDB93
:1022F00004B080BCB846F0BD01AB984600227F23F5
:102300006111E40F8B42544143461B783032640123
:10231000934314401C4343461C707F290FD8197106
:10232000012001232F3A02AC002124182170D10191
:102330007F220198444602400A430192D0E702AC52
:10234000200011F019F9C201D2091300ECE7694627
:10235000100011F0C9F980235B029842C8D3F60738
:1023600006D4002FC4D1074B800A9C466044BFE7C7
:10237000DC231B029C468005800D6044B8E70120E9
:102380004042B5E7C0D70000F8B50B68050014005F
:10239000072B18D05E1E002A16D1012B11D03378DE
:1023A0001B075B0F072B46D82C4A9B00D3589F4630
:1023B00033681B0901339B00F3186A689A4200D105
:1023C0006E6007230B60F8BDD71D0322974334D0FE
:1023D0003000FEF709FAC31BB84203D09B08013B4B
:1023E0001B01F3510F233268240113402343336050
:1023F000E9E733000C33E0E703223368DB090433F9
:1024000093430433F318D8E73378DB06F1D5330070
:102410000833D2E733681B0B9B000C33F318CCE76F
:1024200033002833C9E7032233681B09033393437E
:102430000433F318C1E73300BFE7012B05D10022B5
:102440000F2113680B401360FFDE3000FEF7CCF95C
:102450006B6830188342F2D16E60F0E7BCCB01109C
:10246000F0B5C64600B5050008680C0082B00F281C
:1024700019D003230340012B1BD01F2303401B2B28
:1024800011D0A668002E1BD00022471EBB191A715E
:10249000E368009098463B797F2B14DC012E24D111
:1024A0001B205B01184363686B6302B080BCB846B5
:1024B000F0BD431E1B781B075B0F032BF3D0E0E737
:1024C000E86B6D30EFE7BF2B0DDDDF2B21DDEF2B50
:1024D00022DDF72B07DC042E07D1033001A911F010
:1024E00003F90300DCE7012EF7D0721C69462800CF
:1024F000FFF74AFF43465A012023134006220121D9
:1025000013433A68F60133430A40134300983B6093
:10251000C9E7022EE1D0E8E7032EDED0E5E7C046AA
:10252000F8B50B6805001400072B18D05E1E002AB2
:1025300016D1012B11D033781B075B0F072B46D820
:102540002C4A9B00D3589F4633681B0901339B00DC
:10255000F3186A689A4200D16E6007230B60F8BDD9
:102560009200171D043234D03000FEF73DF9C31B32
:10257000B84203D09B08013B1B01F3510F23326883
:102580002401134023433360E9E733000C33E0E7D1
:1025900003223368DB09043393430433F318D8E789
:1025A0003378DB06F1D533000833D2E733681B0BF1
:1025B0009B000C33F318CCE733002833C9E7032220
:1025C00033681B09033393430433F318C1E7330023
:1025D000BFE7012B05D100220F2113680B401360C8
:1025E000FFDE3000FEF700F96B6830188342F2D14D
:1025F0006E60F0E7DCCB0110F0B5C64602684168BA
:10260000050000B58A4237D21023032698462A4C8B
:1026100013781B075B0F072B4BD89B00E3589F4693
:1026200013681B0901339B00D7180E231078034051
:10263000022B0ED0B9421FD93A00E9E74046137881
:10264000184233D117000E2310780C370340022BA9
:10265000F0D113881B051B0E1B2BEBD917488446A2
:10266000E86C63449B001B58002BE3D0D168280022
:1026700098476968B942DFD880BCB846F0BD136896
:102680001B090333B3430433D718CEE717002837A9
:10269000CBE71368DB090433B3430433D718C4E72B
:1026A00013681B0B9B000C33D718BEE717000837C5
:1026B000BBE71700B9E7C046FCCB0110E4FFFF3FC2
:1026C0008C23C0587047C046F0B5DE4657464E468C
:1026D0004546E0B5A5B01A680093032304001340F3
:1026E000012B0CD00E2120004F4A06F0B3FE0F2024
:1026F00025B0F0BCBB46B246A946A046F0BD013AA3
:1027000011780D330B40022BECD1FF211388090106
:102710001940102945D01B051B0E133BDBB2082BBB
:102720003FD99368013B5A689B685210110091464B
:10273000019305F037FE0F28D9D0002398464B4669
:10274000002B2ADD019B02AE5D1000239A46043562
:10275000AD00009B1B68013B9A68AA18013A1168FA
:10276000172917D0636B306066632000736002F036
:1027700053FD73680200636330680F2AB7D0414687
:10278000431EDB688900013B5B185A6001239C46AD
:10279000E244E0440C35CA45DBDB4246431E1A6185
:1027A000A6E713692000984693684146013B5A68A2
:1027B0009B68521091464944019305F0F3FD0F28A0
:1027C00095D04346002BB8DD002300259A46626B66
:1027D00002AE0DE0471EFF68691CBC4601277F4220
:1027E000BB46AD00DC4465446B608845A7D00D0056
:1027F000690049103060666304A87260FDF770FEDE
:10280000082202AB9B1852461A5404A818F08EFFF7
:1028100004A90200200003F0A5F8726803006263B7
:1028200030680F2BD6D162E754BC0110F0B5DE46FC
:1028300057464E464546E0B5036B91B0072B0DDD7C
:102840001021D34A02F04CFF0F231800039311B05C
:10285000F0BCBB46B246A946A046F0BD01330363B7
:10286000436904699B4607930023DA468046A346E2
:1028700005930B330393C74B049106935B46049A6D
:10288000043B56001E60424653465C469B1A5B0062
:10289000083C23605B46596803230B40012B00D1A1
:1028A00096E01F230B404911132B00D1F7E043465C
:1028B0005A461A6152460E215A614046069A06F05F
:1028C000C9FD059B002B01D101F00AFD5346DB68D1
:1028D0002422013BDB68013B9946434699560F236E
:1028E00003934B4654461B69083C2200072B09D032
:1028F000013B1A684B461B6812095B021B0CD21A7B
:102900009200A21A00290CD15B461F2006E00500A8
:102910001E680B1D35401F2D00D124E119009A427D
:10292000F5D821680020102407290AD04B1E9A6888
:102930005968126898605A601A7822431A700729F9
:10294000F4D153465B685A109B0301D501F08BFB11
:102950004B461B6811045B02090C1B0C8B4200DA0E
:102960009AE004339B0053449B4653461B685B101C
:1029700043449A46079B534501D101F041FE53461B
:10298000DB68013BDB68013B9946039B0F2B00D1C1
:102990007EE0534649461E1F33688D68910304D478
:1029A000594604398B460398086003355B10ED18CF
:1029B000520300D402355E46774B04932F786C1C8B
:1029C00020007D2F00D92AE1049ABB00D3589F46EE
:1029D0000E274A1E13783B40022B00D067E7FF20EA
:1029E000138800010340202B58D0302B00D05EE725
:1029F0007510B60301D501F061FFD268013A136882
:102A000011695B021B0C072901D101F081FF01391B
:102A100009680909CE1A414650462D042F0CDB1BCC
:102A200048610C61D943C9170B4002339919138BC4
:102A30004046C91803F082F8031E01D101F040FBA3
:102A4000A3463EE704235B4253449B464B465A460B
:102A50009B6839000333E31A5B0013604346524618
:102A60001E615A61404610F029FB5346DB68039013
:102A7000013BDB68013B9D6899465B461B6803355B
:102A80005B10ED180F2800D075E1B3460F230393B8
:102A900024234246D15624E70B0062E7D168424620
:102AA0004B00976C5B189B00FF1873109946B60398
:102AB00005D53B7A023B012B01D901F0A4FB4B4623
:102AC00052461E0443461C615A61797A350C491BF3
:102AD000CB43DB174046194003F030F8002800D004
:102AE000EFE67B7A9A46AB4201DD01F03DFC4346BE
:102AF0001C615C613B7A052B11D8284A9B00D35896
:102B00009F464B46DA030A217B5ED20B00932100DD
:102B1000230040463E6810330831B04703901F231E
:102B2000039A043513400F2B16D156111F2A13DDBB
:102B30002368A3465B1043449A46731E04931A0409
:102B40004346120C0232AD1AAD00AB445846196927
:102B5000920018F029FD91E6AD00AB466268A246EE
:102B6000A344521001E784234246D2588B460A60A0
:102B700007224146CA504B469D6876110335AD1970
:102B800019E75F3F043E7F002500376016E7C04627
:102B900064BC01109CBC01101CCC011014CE0110AF
:102BA0004B46DA68637869781B020B43013A9B0055
:102BB000D3185A6804235B4253449B464B465946FC
:102BC0009B6805200333E31A5B000B6043465146C4
:102BD0001E61596171683368282F01D101F096FD9B
:102BE000292F01D101F091FD1120009301900B23B9
:102BF000404608F069F9020003905346DB68013B48
:102C0000DB68013B9D6899465B461B6803355B109A
:102C10000F2A00D139E70233ED180436CEE64B46D1
:102C20005246B3469B68161F0333E31A5A003260BC
:102C3000594642461161514640465161013B1021BF
:102C4000ED4A009702F04CFD5346DB684246013BDB
:102C5000DB68013B99462423D156153B039340E69C
:102C60006B1D01CE9B46FEF75FFA3523DB1B8342CB
:102C700001D101F0CAFD62786B7812021A43A37881
:102C8000E5781B0413432D061D43043D5D44434674
:102C900042465B8C013B1BB25384002B00DD8DE66A
:102CA00004235B4253449B464B465A469B6840462E
:102CB0000333EB1A5B001360434652461E615A61B0
:102CC00002F0B8FD5346DB68013BDB68013B9D68C1
:102CD00099465B461B6803355B10ED180F2800D141
:102CE000D3E60B23039369E662786B7812021A43EA
:102CF0005346DB68911C8900013B5B189B68581E9A
:102D000001780333C90600D483681968172901D1F3
:102D100002F001F804CE03351A604FE662786B7852
:102D200012021A435346DB68911C8900013B5B1871
:102D30009B68013B1978C90601D401F065FC5B680A
:102D40000393172B01D101F023FF039B043E0335AE
:102D5000336033E63268D30700D573E63B00413B6E
:102D600052105B009B18A54AD34200D56AE62500A5
:102D7000013B5B000393039B043E33601EE6042388
:102D80005B4253449B464B465A469B680333E31AC7
:102D90005B001360434652461E615A613A2F01D1CF
:102DA00001F01EFD336803221A40012A01D001F010
:102DB000FFFB013B19780D320A40022A01D001F0D5
:102DC000F7FB1B881B051B0E012B01D001F0F0FB4C
:102DD0000021404605F062FA002801D101F00EFD05
:102DE00043461B69421C1B680392436000238360B7
:102DF0005346DB68013BDB68013B9D6899465B46B7
:102E00001B6803355B10ED180E2800D13DE63260DB
:102E1000D4E54B462100DA03230040463E68D20B3E
:102E200010330831B047039079E64B469D68042380
:102E30005B4253449B465A460335631B5B00136059
:102E4000434652461E615A613900404610F00EFA60
:102E50005246D3680390013BDB685A1E9568914641
:102E60005A46136803355B10ED180F2800D10CE6A5
:102E700070600436A2E57368326819001143C9070F
:102E800001D501F06BFB9206D20E5B1093408022BD
:102E9000D205D34201D501F061FB5B0073602500D0
:102EA00004368BE57368326819001143C90701D5F0
:102EB00001F054FB9206D20E5B10D3408022D20563
:102EC000934201D301F04AFB5B0073602500043696
:102ED00074E57368326819001143C90701D501F020
:102EE00007FE52105B109B1A5A4253411F225B424D
:102EF000934323337360250004365FE573683268BB
:102F000019001143C90701D501F01AFE52105B10D8
:102F10009B1A5A1E93411F225B42934323337360D3
:102F2000250004364AE54B469A6804230332A21A68
:102F30005B42534452001A609B46514643463068F8
:102F40001E615961C3070BD503210140012901D13D
:102F500001F0F6FC1F230340132B01D101F03DFDCE
:102F6000274A0E21404606F075FA5B461A680F2381
:102F700003935346DB685210013BDB68013B9D68BD
:102F80009946039B0335AD180F2B00D17DE5736087
:102F9000043613E504235B4253449B464B465A4692
:102FA0009B680333E31A5B001360032443465246D5
:102FB0001E615A61230035682B40012B01D101F0BD
:102FC00047FC0E2140460F4A06F044FA0F230393B4
:102FD0005346DB68013BDB68013B9D6899465B46D5
:102FE0001B6803355B10ED18039B0F2B00D14CE5DC
:102FF00073600436E2E4C04658BD0110FFFFFF3F96
:10300000FCBC011014BD0110726833681100194333
:10301000C90701D501F084FE032152105B109A42CA
:1030200000DB2031716025000436C7E47368326824
:1030300019001143C90700D5F7E6991A53404A40D1
:10304000934300D5F1E6716025000436B6E472685A
:10305000336811001943C90701D501F0DAFCD11812
:103060005A404B402500934301D501F0D2FC7160DA
:103070000436A3E4736831681A000A43D20700D506
:10308000D3E658104910002B00DACEE6002900DC08
:10309000CBE613F055F849007160250004368DE445
:1030A0004A4633687068994603439568DB0700D544
:1030B000BDE604220335631B524252445B00136099
:1030C00093465146424640101661516113F042FB4F
:1030D0004B46040058100D0013F03CFB02000B009F
:1030E0002000290013F0A1FA02000B00404605F071
:1030F000A7FF5246D3680390013BDB685A1E9568D0
:1031000091465A46136803355B10ED180F2800D11D
:10311000BBE47060043651E47368326819001143EF
:10312000C90701D501F01AFA9206D20E1341012205
:10313000934373602500043640E4726833681100DD
:103140001943C90701D501F0BEFD032152105B10E0
:103150009A4200DC20317160250004362EE472684A
:10316000336811001943C90701D501F084FD03211B
:1031700052105B109A4200DA20317160250004364B
:103180001CE47268336811001943C90701D501F0C6
:103190001EFD032152105B109A4200DD2031716048
:1031A00025000436FFF70AFC736832681343DA0718
:1031B00001D501F0D3F9736025000436FFF7FEFB5B
:1031C000331F31681E00196003230B40012B01D00F
:1031D00001F00DFC4A1E10780D330340022B01D183
:1031E00001F0F4F9062B01D001F019F81268D209A8
:1031F000800601D401F00EFE250053000393039BCB
:103200003360FFF7DBFB3168DEE70323B26813406E
:10321000012B01D001F039F971688B4301D101F024
:1032200034F90E23013A10780340022B01D001F04B
:103230002CF9FF20138800010340102B01D001F06E
:1032400024F9D56813694910681E8B4201D801F032
:10325000BAFE336889004018436025000C36FFF73A
:10326000ADFB3368716818000393316001220323BA
:1032700082430B40012B01D001F042F8002A01D11A
:1032800001F04AF901390A780D331340022B01D0BD
:1032900001F01DFCFF220B8812011340102B01D0FE
:1032A00001F015FC0B694210934201D801F00FFCAC
:1032B0002500CB689200013B9B185B680393039B3E
:1032C0003360FFF77BFB330004CB716810001E00F6
:1032D0000392CBE763786A781B02134352460433A8
:1032E0009B009B58043E03353360FFF767FB627811
:1032F0006B7812021A4303235B429B1A524602CE9A
:103300009B0003359950FFF759FB62786B781202E6
:103310001A4303235B429B1A52469B009B58043E70
:1033200003353360FFF74AFB032332681340012B58
:1033300001D101F0F5F9072A01D101F0F9F90500F1
:103340000436FFF73BFB4B46D96863786A781B026B
:10335000134304225242524493464A4658469268C6
:103360009B000332A21A52000260424650460139C5
:10337000C9185061166140465246496808F0BCFAC7
:103380005346DB680390013BDB68013B9D6899462F
:103390005B461B6803355B100F2801D1FFF775FBF7
:1033A0000233043EED183060FFF708FB4B46DA6845
:1033B000637869781B020B43013A9B00D3185B6862
:1033C000043E33600335FFF7F9FA4B460327DA680A
:1033D000637869781B020B433900013A9B00D318CC
:1033E0005A6873681940012901D001F033F9013B93
:1033F0001D780D312940022901D001F02BF99D687B
:103400001740691E93085F408B685B103B40023396
:103410009B00C9184B68002B01D101F01BF9033543
:1034200006E0996889008B08002901D101F012F9A2
:103430005B00EB1819688A42F3D1D97A3F2901D988
:1034400001F008F9984501D901F004F9414689686D
:10345000994201D801F0FEF83268851C5A6008369E
:10346000FFF7ACFA331F31681E0019604B46DA686B
:1034700063786D781B022B439B00013AD21803231B
:1034800052689C460B40012B01D001F010F94B1EF5
:1034900008931B789B460E235D462B40022B01D0E0
:1034A00001F005F96346BB4613409508A4465D400C
:1034B0000C000899059503928D68059A6F1EBB68EC
:1034C0005B10134002339B00FB185B68002B01D19B
:1034D00000F092FE039A033506E09F68BF00BB0828
:1034E000002F01D100F087FE5B00EB181F68BA4285
:1034F000F3D1DD7A21005F4664463F2D01D901F00A
:10350000D6F85B680393039B851C3360FFF756FA7C
:10351000514663786A781B021343043304CE9B0040
:1035200003355A50FFF74AFA756833682A001A4380
:10353000D20700D579E45A102800DB17E917934623
:1035400013F0E0FCC3178B4200D06EE4034301D1BB
:1035500001F053FC706025000436FFF72FFA0423B6
:103560005B4253449B464B465A469B680333E31ADF
:103570005B001360434652461E615A615B6B0CACA4
:10358000706831689C46636043460C905C63CB076F
:1035900001D501F04EF8434662465A6303221300F8
:1035A0000340012B00D0B0E0451E2C780D3303956D
:1035B0002340022B00D0A8E0AB680A405C1E0593B4
:1035C000A36827005D108B0853402B4002339A00FC
:1035D000914623004B440A925A6808940995521068
:1035E00000D192E0059B01250333994663460B9376
:1035F0004B466D428446B14608002E001D0007E090
:103600009B6816009B00DB0801D101F0DEFB1A006D
:1036100094002B1919688842F2D10B9A08996046D8
:10362000350094464E46884503D8424692688A4201
:1036300018D863460F9343460EAF01005F630E90A8
:10364000404607F009FA41460F9A0E9B4A6300284C
:1036500001D000F0FCFF013B03939B6805935F1EC4
:1036600003331B19996889008908002D01DA01F0DC
:1036700004FCA8003818C268920F92070A43C2607F
:103680003C682409A11E89007918086822001728BF
:1036900002D18A689200D2087868401081460138C9
:1036A0004000786008903F20DD7A2840D8721720CB
:1036B00018600C38586008388446099B63449C465F
:1036C0006046D14B8C46D3189B000100FB1805E0E7
:1036D0001D680C3BD01E172D02D102008A42F7DC78
:1036E0000B0061469C46944206DD8B68D2009B0F1E
:1036F00092089B0713438B604B465B004B4463442B
:103700006210934201DA00F039FD23225346DB6850
:10371000013BDB68013B9D6899465B461B680335AE
:103720005B10ED180F2A01D1FFF7AFF92323043600
:1037300033600393FFF742F94B469B6852460333CD
:10374000E41A04235B42534464001C60434630681F
:103750001E615A61C30701D401F0ADF80323034091
:10376000012B01D101F0D7F81F220240132A01D109
:1037700001F0A0F980231B2A09D0032A01D101F00E
:1037800046FB073A51424A41524213400C334246EB
:10379000D26B6410D2185346DB68511C013BDB68C6
:1037A0000391013B9D68994603352D190E2A01D1DD
:1037B000FFF76BF93160FFF701F93068FDF7B4FCF2
:1037C000431E98411F224342934323333360250015
:1037D000FFF7F4F84B469D683368691EDA0701D598
:1037E00001F03DF90A685B1012099A4201D801F014
:1037F00036F903350436ED18FFF7E0F862786B7898
:1038000012021A43A378043E1B041343E278120603
:103810001A434B469B68EB1A02335B003360A518D2
:10382000FFF7CCF83368DA0724D4784A5B10934268
:1038300020D001335B0025003360FFF7BFF8336809
:10384000DA0717D4C0225B101206934212D0013B54
:103850005B0033602500FFF7B1F83368DA07F9D56C
:1038600003221A40012A05D1013B1B781B075B0F7D
:10387000022BACD004235B4253449B464B465A4632
:103880009B6839000333E31A5B00136043465246DA
:103890001E615A6140460FF081FD5246D368039085
:1038A000013BDB685A1E956891465A4613680335FA
:1038B0005B10ED180F2801D1FFF7E7F83060FFF734
:1038C0007DF863786A781B021343A278043E1204E1
:1038D0001A43E37805351B0613434A469268E318FA
:1038E00003329B1A1F225B0113433360FFF766F814
:1038F00062786B7812021A43A378E5781B041343AD
:103900002D061D43434642465B8C6519013B1BB2A5
:103910005384002B01DDFFF751F804235B4253442D
:103920009B464B465A469B6840460333EB1A5B0066
:103930001360434652461E615A6101F07BFF5346B5
:10394000DB68013BDB68013B9D6899465B461B6871
:1039500003355B10ED180F2801D1FFF796F80B2304
:103960000393FFF72BF804235B4253449B464B46DB
:103970005A469B680333E31A5B0013604346524682
:103980005A6132681E61013A5168936801390869C9
:103990005B10984201D900F03CFE30002323083828
:1039A0000360043E183B33605346DB680600013B6E
:1039B000DB68013B9D6899465B461B6803355B10DD
:1039C000ED180B230393FEF7F9FF3368DA0700D5F0
:1039D00050E7002B01D000F030FF42469033D3581F
:1039E00025003360FEF7EAFF736831681A000A4366
:1039F000D20701D500F0B2FD4B40736025000436BC
:103A0000FEF7DCFF316831E5FEFFFF3FFFFFFF3FC0
:103A100004235B4253449B464B465A469B68033300
:103A2000E31A5B001360434652461E615A614246E8
:103A3000B4230EACD058516BD56853685463926967
:103A4000616018320E90EF1A974201D200F0E0FE4A
:103A50001A0044461832626002221A600F22616323
:103A6000196858601140C22292010A431A608822E4
:103A7000A2589A605A1C03925246D268013AD26800
:103A8000013A956891465A46126803355210AD18AE
:103A90000E2B01D1FEF7F9FF7268DA603268043646
:103AA0001A6100225A61039B3360FEF787FF534679
:103AB00031001E1F4B469B6804C90333E31A5B00A9
:103AC0003360504643461961586184234046C250D2
:103AD0000022603BC25453465446DB68083C013B1D
:103AE000DB682200013B99461B69072B01D100F0DE
:103AF00087FE013B1A684B461B6812095B021B0CD0
:103B0000D21A0F2392008B46A21A0393FEF7FCFEF3
:103B100054463368083C0393FEF703FFB346594607
:103B20005A4666786B7836021E430594731C7410EF
:103B30009B00A400043104965B4464181868116863
:103B400001C2043B59609442F8D153461E1F4346BC
:103B50005A8C013A12B25A844B4699684B1E002A7D
:103B600000DC9BE3059A0433D31A5B003360FEF755
:103B700085FEB34666786B7836021E4333000594A3
:103B800004965C1C64100BD05A469B00A4005B4456
:103B90005C441868116801C2043B5960A242F8D124
:103BA0005B460B22043B9B461A6053461E1FCEE722
:103BB00067786B783F021F4304235B4253449B4664
:103BC0004B465A469B6839000333E31A5B00136087
:103BD000434652461E615A61404604F0E3FB534699
:103BE000DB680390013BDB68013B9D6899465B46BF
:103BF0001B6803355B100F2801D1FEF746FF023327
:103C0000ED18431EDA68002F09D07B1E9B00F318C5
:103C10000332196802C21900043B8E42F9D1BF0079
:103C2000039BF619043E3360FEF7C8FEB3468026B8
:103C300063786A781B02134376021E430594049648
:103C40009FE732687368B168250031607260B360C5
:103C5000FEF7B4FE33687268250032607360FEF7C9
:103C6000ADFE7368F268B16825007160B260F36000
:103C7000FEF7A4FE7368B26825007260B360FEF7B9
:103C80009DFE32687068B168331F1A60250007C650
:103C90001E00FEF793FE32687168331F1A6025001C
:103CA00006C61E00FEF78AFE330072683168083BC4
:103CB000043E1960250032601E00FEF77FFE326868
:103CC000331F25001E001A60FEF778FE33682500BA
:103CD00073600436FEF772FE25000436FEF76EFEB2
:103CE00053465B680B229B0301D55346DA68043EBA
:103CF00025003260FEF762FE53465B6840465B106B
:103D000008931B041A0C099304235B4253449B46FB
:103D10004B4659469B6805920333E31A5B000B60E0
:103D200043465146544659611E61110004F03AFB66
:103D3000E3680390013BDB685C1EA568A1465C4616
:103D4000236803355B10ED1803000F2801D1FEF73F
:103D50009CFE013BDF68059A791E002A38D01300CB
:103D6000013B082B01D800F098FE53461033180091
:103D7000FA1C1043400701D000F091FE5046143069
:103D8000904201D100F08BFE099A5046540C0D224E
:103D90005242121AAC468B461500E4001C19FA1860
:103DA0001868596852190833106051609C42F6D166
:103DB000F04B089A65461A401300059A59469A42F4
:103DC00006D050461A1D920012589B00CB185A601C
:103DD000039B043E3360FEF7F1FD5346DB68043E6F
:103DE00025003360FEF7EAFD61786B78090219431C
:103DF00004235B4253449B464B465A469B684046CD
:103E00000333E31A5B001360434652461E615A6156
:103E100005F060F85346DB680390013BDB68013B2B
:103E20009D6899465B461B6803355B100F2801D1DE
:103E3000FEF72BFE043E02333060ED18FEF7BEFDA8
:103E40002323043E25003360FEF7B8FD5346DB69AB
:103E5000043E25003360FEF7B1FD53469B69043EE6
:103E600025003360FEF7AAFD53465B69043E25003A
:103E70003360FEF7A3FD53461B69043E2500336003
:103E8000FEF79CFD534604CE183B25001A60FEF752
:103E900095FD534604CE143B25001A60FEF78EFDB7
:103EA000534604CE103B25001A60FEF787FD5346AB
:103EB00004CE0C3B25001A60FEF780FD5346183BEC
:103EC0001B68043E25003360FEF778FD5346143B23
:103ED0001B68043E25003360FEF770FD5346103B1F
:103EE0001B68043E25003360FEF768FD53460C3B1B
:103EF0001B68043E25003360FEF760FD03236978EC
:103F00005B425B1A514604CE9B005A500235FEF7C5
:103F100055FD03236A785B429B1A52469B009B58CF
:103F2000043E33600235FEF749FD63786A781B0270
:103F300013431BB2043E5B0033600335FEF73EFDC6
:103F40000123EB56043E5B0033600235FEF736FD7D
:103F5000524608CE2500D361FEF730FD524608CE0A
:103F600025009361FEF72AFD524608CE25005361D5
:103F7000FEF724FD524608CE25001361FEF71EFD14
:103F80003368DA43DB0701D500F004FC01239A43D0
:103F900025003260FEF712FD736832681900114384
:103FA000C90701D500F0E4FE52105B109B1A5A427B
:103FB00053411F225B429343233373602500043631
:103FC000FEF7FCFC716833680A001A43D20700D57B
:103FD000C4E20B40736025000436FEF7EFFC736803
:103FE000326819001143C90701D500F018FE5210BC
:103FF0005B109B1A5A1E93411F225B42934323334B
:10400000736025000436FEF7D9FC0323043E250027
:104010003360FEF7D3FC63786A781B021343A278FF
:10402000043E12041A43E37805351B06134333603C
:10403000FEF7C4FC0723043E25003360FEF7BEFCF8
:104040000B23043E25003360FEF7B8FC53469B6803
:10405000043E25003360FEF7B1FC0B235446039366
:10406000083CFEF75EFC03990F2901D1FEF770FCB6
:1040700003230B40012B01D100F01EFD53469B682A
:104080000393FEF765FC4B46DA03E368D20B013B72
:104090001B69FEF73BFD226940460EA90DF09EFD0F
:1040A0000E9A0F9B002805D1100019003E68B047FA
:1040B00002000B00404604F0C3FF0390FEF72FFD03
:1040C0005A465268013AD268013A91461268520241
:1040D000120CBA4201DD00F0D5FE0021221F116052
:1040E0000731043A11600F398B46B200A21A93448B
:1040F000002E38DD2049701E891B8A00A218520745
:10410000D20F052816D9002A03D00B235846036086
:104110000A3BB71A0B2052180B2192007D08A218F7
:10412000ED00AD1803C2AA42FCD101223A421AD0D6
:104130009743DB1958460B219A008150581C864240
:1041400011DD5A44981C516086420CDDD81C9160E8
:10415000B04208DA181DD160864204DD05331161D2
:104160009E4200DD51614B469D68A2460335FEF735
:1041700022FCC046FEFF0000FEFFFF3F089B5D10D3
:10418000002B01D100F05BFFBB685B109946012D4D
:1041900001DC00F040FF681E11F0C0FF80231B0609
:1041A000C340013B4B4500DD4B46DA1C94460322DD
:1041B0006A4362441000A24201DBFFF7A6FA5B00EB
:1041C000BB604A460021D146BA4604329200BA1872
:1041D00005901368172B01D100F03AFE4B005B18D5
:1041E000634401339B005344013191CA91C38D4212
:1041F000EFDC00F032FE03924C68072C00D187E11F
:10420000611EFFF759F943465A461A6152460E217C
:104210005A614046E54A05F01DF9FEF752FB0423BA
:104220005B4253449B464B465A469B684046033389
:10423000E31A5B001360434652465A61DA6B1E6113
:10424000313201230DF062FA5346DB680200013B74
:10425000DB680390013B9D6899465B461B6803350C
:104260005B10ED181F2303400F2B01D0FEF7C7FF93
:1042700043461B695E4605959B465311002B01DCA6
:10428000FEF706FC013B233F0493042F00D95EE4B4
:104290008023049ADB021A43049258E4059B0331FD
:1042A0005B1A5B0033605A4643461A6152464046E9
:1042B0005A6101F0BFFA5346DB683168013BDB68A5
:1042C0004910013B9A689946531E033252180390D5
:1042D00005920F2801D1FEF7DBFB0B22039241E48C
:1042E0000F235C46C146D34603934B465A465A6158
:1042F0004A461C611B6B0398013B1363FEF7A7FA48
:104300004B4604219B6849420333E31A51445B0046
:104310008B4650460B6041460E614861002A00D131
:1043200009E1012293435A461360434652461E61F7
:104330005A6140460123039A31680DF0E7F953466C
:10434000DB680200013BDB680390013B9D689946F6
:104350005B461B6803355B10ED181F2303400F2BD2
:1043600001D0FEF7ACFF83E75B1B08939B001A00AC
:104370000493E41AEB1C082B00D883E31300083BDA
:104380009B1A9B1A59465B441A0008390A43520784
:1043900000D077E3049A043200D173E32A1D760C2F
:1043A0000A92B21C56460B96049EBA46B44609922F
:1043B000D2009A18C0C9C0C39342FBD1634604938C
:1043C0000B9B57460A999A46099B5A008A4208D085
:1043D000089B9C46624492001359012291438A0033
:1043E0001351089900294DDDAB001A00049E0832D4
:1043F000921B5A4452070139D20F05291ED9002AAF
:1044000003D00B210120E3181961089B991AAB1CFA
:104410009B18049A9B009B1A5B441E004B08DB0010
:104420008C460B2299190B230CC68E42FCD101231A
:104430006246134226D01100994340180B230435DD
:104440004219920008991351421C8A421ADA5219F1
:1044500092001351821C914214DDAA18920013514C
:10446000C21C8A420EDA521992001351021D914267
:1044700008DD5219920005301351884202DA4019C2
:10448000800003515546FEF732FB4B469A680423E1
:104490000332A21A5B425344520051461A609B46B3
:1044A0004346596171681E610391CB0708D54046A8
:1044B00004F050F95A467060126803900F2844D0F7
:1044C00001205946824333680A603200414608326F
:1044D0000A61424651465161B168039A00904046D4
:1044E0000DF02EFC5346DB680390013BDB68013B7B
:1044F0009D6899465B461B6803355B10ED181F23CA
:1045000003400F2B01D100F06AFC0C36FEF756FA7F
:104510000B230393FEF7F7FF04235B4253449B46B0
:104520004B465A469B680333E31A5B0013604346CD
:1045300052461E615A614046039904F00BF95B46EE
:1045400003901B680F2800D0EBE65346DB68B346A8
:10455000013BDB68013B9946FEF79AFA04235B4274
:1045600053449B464B465A469B6839000333E31A33
:104570005B001360434652461E615A6140460EF08E
:10458000BDFC5246D3680390013BDB685A1E956818
:1045900091465A46136803355B10ED180F2801D178
:1045A000FEF773FA70600436FEF708FA88BC011053
:1045B0000E214046E14AB34604F04CFF5346DB6807
:1045C000013BDB68013B9946FEF760FAFF20138848
:1045D00000010340102B00D021E645468833506887
:1045E000EB58984200D01AE688239068EB5898421E
:1045F00000D014E6136925005B000393FEF7FFFD6E
:104600005C46C146D34670E69B681B680393FEF781
:1046100098FB3000032408380460C9689C00013905
:10462000091949680133043E5B0031609360FFF76C
:10463000BBF9404604F08EF8636801009C4643468F
:1046400062460C985A630F2901D0FEF7A7FF0F228C
:10465000FFF75CF80421494251448B46494689687A
:1046600030000331611A5C46490008C821604146A8
:1046700008615046486101207168009040460DF085
:104680005FFB5346DB680200013BDB680390013BA4
:1046900098689946236803305B10C0181F231340A5
:1046A0000F2B00D1C0E30836851CFEF787F90423E1
:1046B0005B4253449B464B4658469B680333E31A80
:1046C0005B000360434650461E615861012340462B
:1046D0000DF01CF85346DB680200013BDB680390D9
:1046E000013B986899465B461B6803305B10C01815
:1046F0001F2313400F2B01D0FEF705FF43461B6914
:104700005E4605909B465311B8E5092001900230A2
:104710000090404606F0D8FB02000390FEF76DFAC9
:10472000531E19780E230B40022B01D0FEF703FE17
:104730004B4604229B6852420333E31A52445B0007
:104740001360514693464246516116617268316862
:10475000013A506881420FD007290AD04B1E9A4275
:1047600004D1BEE1013B9A4200D1BAE15B68072B5C
:10477000F8D15B4651601B685246D2685B10013A23
:10478000D268013A906891460330C0180B23039316
:10479000FEF7D5FD04235B4253449B464B465A46E5
:1047A0009B6840460333E31A5B001360434652465E
:1047B0001E615A610EF022FB5246D3680390013B02
:1047C000DB685A1E956891465A46136803355B109C
:1047D000ED180F2801D1FEF758F93060FEF7EEF81A
:1047E0003300012200214046FDF76EFF43461B695E
:1047F00030601B680F2B01D0FEF7D5FAB346DDE61B
:104800000F238B460393FEF77FF85D46FEF73FFAD2
:1048100001214046FDF7C0F84046FCF75BF94246EF
:10482000434692695B681832ED1A954201D200F056
:1048300012FC61680E98FFF70BF980221206934272
:1048400001D1FFF717F85B4225003360FEF7B6F899
:104850002800FCF759FC002801D1FEF7B2FB4346C3
:10486000DA6B290000234046353277680CF04EFFA2
:104870000F2801D1FEF7AAFB03233C400393012C30
:1048800001D0FEF7A5FB013F3A780B331340022B12
:1048900001D0FEF79DFB7B68072B06D1FEF798FB46
:1048A000013B5B68072B00D1A3E38342F8D12323AC
:1048B0000393FEF78DFB7C23FEF769FF43465246C8
:1048C0005A61DA6B1C614046002335320CF01EFF42
:1048D00001000F2801D1FEF7B3F803230340012B99
:1048E00000D175E294234246D158404602F006F8C2
:1048F000002801D1FEF7A4F8431C03930E2801D130
:10490000FEF79EF85A4613605268013AFEF775F8B2
:104910000026FEF780F8431E1A781207520F022A6B
:10492000C9D08023032A01D1FEF731FFFCF7ECFB4D
:1049300023231B1A9B00FEF72AFFC04638BD011037
:104940000724013803781B075B0F06332340012B34
:1049500001D8FEF705FB73680393994312D1190040
:10496000404603F0F7FE5B4603901A680F2801D11A
:10497000FEF7FFFA43461B69186803230340012B27
:1049800031D101380E2301780B40022B2BD1039F2C
:104990000133B9083B4059400C008568691E8B689B
:1049A0005B10234002339B00C9184B68002B0FD0CB
:1049B000033504E0996889008B08002908D05B0062
:1049C000EB1819688F42F5D123230393FEF7D1FA30
:1049D0004068072807D00138DFE7736819000393A0
:1049E00001238B43BCD003230393FEF7C2FA1F239A
:1049F000039A13401B2B00D011E480230221521193
:104A00005B0203919A4201DB042303932500FEF726
:104A1000F6FB04235B4253449B464B465A469B6835
:104A200040460333E31A5B001360434652461E615F
:104A30005A610DF0C3FE5246D3680390013BDB6818
:104A40005A1E956891465A46136803355B10ED1857
:104A50000F2801D1FEF719F80100FEF708FB5346B5
:104A6000B3461E1F0B1DE31A5B0033605A464346D4
:104A70001A61524610215A614046F24A00F030FE57
:104A8000FEF7E2F82300A9001031049E09199A5993
:104A900004C38B42FBD10496A3E453461033059A1A
:104AA000043197000022985888500432BA42FAD153
:104AB000FFF78EF901203BE70B00013B19780E232D
:104AC0000B40022B01D1FDF743FFFFF7D7FA4B460E
:104AD00004229B6852420333E31A524493465B001C
:104AE0001FE40E214046D84AB34604F0B3FC65E506
:104AF00004235B4253449B464B465A469B68012124
:104B00000333E31A5B001360434652461E615A6149
:104B100040460DF0BDFF5246D3680390013BDB6871
:104B20005A1E956891465A46136803355B10ED1876
:104B30000F2801D1FDF7A9FF70600436FDF73EFF95
:104B400004235B4253449B464B465A469B680021D4
:104B50000333E31A5B001360434652461E615A61F9
:104B600040460DF095FF5246D3680390013BDB6849
:104B70005A1E956891465A46136803355B10ED1826
:104B80000F2801D1FDF781FF70600436FDF716FF95
:104B9000302F01D0FEF7D9F84B4659695346B3463A
:104BA0001E1F4B469B6858460333E31A5B00336075
:104BB000434618615046D200013989185861A34A0A
:104BC0004B6840460C2100F08BFDFEF73DF80423B6
:104BD0005B4253449B464B465A469B6852210333E3
:104BE000E31A5B001360434652461E615A61404619
:104BF0000DF098FE5246D3680390013BDB685A1EC5
:104C0000956891465A46136803355B10ED180F28D6
:104C100001D1FDF73AFF70600436FDF7CFFE0423A3
:104C20005B4253449B464B465A469B68404603337F
:104C3000E31A5B001360434652461E615A61716875
:104C400032680DF0FDFC434243411F225B42934317
:104C500023331A0003935346DB680436013BDB68B9
:104C6000013B9D6899465B461B6803355B103260CB
:104C7000ED18FDF7A3FE04235B4253449B464B46CD
:104C80005A469B6850210333E31A5B001360434686
:104C900052461E615A6140460DF044FE5246D368AA
:104CA0000390013BDB685A1E956891465A4613688B
:104CB00003355B10ED180F2801D1FDF7E6FE70609B
:104CC0000436FDF77BFE04235B4253449B464B4670
:104CD0005A469B6851210333E31A5B001360434635
:104CE00052461E615A6140460DF01CFE5246D36882
:104CF0000390013BDB685A1E956891465A4613683B
:104D000003355B10ED180F2801D1FDF7BEFE706072
:104D10000436FDF753FE312F01D0FDF7FBFF3BE7D3
:104D200004235B4253449B464B465A469B6853219F
:104D30000333E31A5B001360434652461E615A6117
:104D400040460DF0EFFD5246D3680390013BDB680F
:104D50005A1E956891465A46136803355B10ED1844
:104D60000F2801D1FDF791FE70600436FDF726FE95
:104D700004235B4253449B464B465A469B6840463D
:104D80000333E31A5B001360434652461E615A61C7
:104D9000716832680DF054FC431E5A4253411F2281
:104DA0005B42934323331A0003935346DB68043674
:104DB000013BDB68013B9D6899465B461B680335F8
:104DC0005B103260ED18FDF7F9FD4E46FEF79DFCD5
:104DD000431E1B781F40022F00D186E582E5434623
:104DE0001B695E469B4643111F2801DCFDF750FE00
:104DF000013B04930595FFF74BFA5B461D4301D435
:104E0000FEF7A8FB90234246D058FEF7A3FB84236D
:104E1000FEF7BDFC002340465200FDF7CBF84300EF
:104E200025000393FEF7EBF943461B695E460590A8
:104E30009B4653111F2A01DCFDF72AFE013B049318
:104E4000FEF785FEACBC0110E0BC0110C0BC011037
:104E50000C32A94201DAFFF7BCF9CA460598039C57
:104E60000200210040460831FDF75AFB00222100D4
:104E70004046FBF765FBFEF748FC0A9ABA185160FA
:104E8000FEF7FEFBD21B0492F91C92009246A41A74
:104E9000082900D8B1E05A465146511A58460839F7
:104EA0000A0008380243520700D0A6E052460432F6
:104EB00000D1A2E06D0C3A1D02350592EA0094463D
:104EC000049A8C440894099318C818C16145FBD111
:104ED00094460492059A089C099B6D00954207D060
:104EE0006544AD000121285915008D43A9000851E2
:104EF0000498002801DCFFF7F0F8BA00110094468E
:104F0000524601250831891A594489080138294037
:104F100005287ED90591002904D06246A0180B22ED
:104F200005950261049AB81C551A52464118890029
:104F3000891A59448C466908C90061448A460B2085
:104F40000B219B46049A634603C39C465345FAD102
:104F500001215B4604920D4201D1FFF7BEF8059A8C
:104F60008D43944665440B21381D2F18BF00049AC9
:104F700039516F1CBA4201DCFFF7AFF8C719BF0007
:104F80003951AF1C974201DBFFF7A7F83F18BF006C
:104F90003951EF1CBA4201DCFFF79FF8C719BF0077
:104FA00039512F1DBA4201DCFFF797F8C719BF002E
:104FB00005353951AA4201DCFFF78FF82D18AD00F5
:104FC0002951FFF78AF88B4201D0FFF75EFA072DCF
:104FD00001D1FFF75AFA01680909994201D8FFF790
:104FE00054FA35689900411801334D601361FEF79A
:104FF00034F9043B0393FDF7EBFF2000B9001031B7
:10500000049A09195546455920C08842FAD104929C
:105010006EE70025A7E7002B00DD0023DA1C94468D
:1050200003226A4362441000944201DCFEF76DFBE8
:105030005B00BB60012D01D1FFF7C3F80FE74246CB
:105040008833D358059A934201D1FEF75EFB039A49
:105050009360FEF75AFB43461C255D57B346002D6F
:105060000BD0842307224146CA500022603BCA5419
:10507000424663685363FFF7A1FA42460123137760
:10508000FF3393611021054A404600F029FB434657
:105090001D77802342469B009361E9E778BC0110AD
:1050A000F0B54E46DE46574645460323E0B50400BC
:1050B000160087B00B40012B00D181E01F230B406D
:1050C000132B00D0A3E004220027B3469046636B65
:1050D000013A02AD019200975A4600986B60101A8F
:1050E000421E9041424640421040E26B002312189B
:1050F00065632000713229600CF008FB6B68296839
:1051000063630F2812D0019A0240012A16D01F2291
:105110000240132A20D00120009A00900132022A76
:10512000DAD10E2120003B4A04F094F90F2007B099
:10513000F0BCBB46B246A946A046F0BD461E32783A
:1051400094460E2267463A40022AE4D13288FE266F
:1051500036013240202ADED148277F42B9466768AF
:1051600004AABC466A602269664691444F46BF1B4A
:10517000A6690593B4464826B246D44404906563B4
:10518000674525D34E46E660161F083A3060226117
:10519000200011602960656300216B60FDF746FB0C
:1051A0006B68296863630F28C0D003220240012A7C
:1051B000BDD1421E16780E223240022AABD0B6E78D
:1051C0004B1E1B7808001B075B0F012BAFD17AE742
:1051D00001212000FCF7E0FB2000FBF77BFC4B46A5
:1051E00062689A1AA36948339A4204D304982269E0
:1051F000059B2968C6E7200000F038FB059B0028C6
:1052000003D1049822692968BCE763638EE708002C
:105210008DE7C0467CBD0110F0B5040001250326D2
:10522000A5B0280088434CD133000B40012B0FD090
:105230001F230B40033B182B03D8294A9B00D3584C
:105240009F4601222749200000F08CFB25B0F0BDCD
:105250004F1E3B781B075B0F022B26D0032B15D06C
:10526000012B08D100222000FFF71AFF01000F28B0
:10527000D7D10F20EAE780211B4A04A8FCF772FB74
:1052800004A816F053FA04A90200DCE70800DDE7E1
:105290004B115A42534103225B4293430833E06B64
:1052A000C0180130D2E70C23F9E70A217A68BB68FD
:1052B000029001900091200005F0BCFCC6E7782325
:1052C000EDE7491004A8FBF70BF910216A4600230B
:1052D00052181354100016F029FA04A90200B2E77C
:1052E0002CCE011088BD011014BB0110F0B5DE46B4
:1052F000574645464E46E0B5B9B00F00202518A9DF
:1053000013910021834610A84019439C0170002A84
:1053100009D0D449429D009313A8130001950A00B7
:1053200038A9FCF71BFA5B465A699B6859469A42B2
:1053300007D186E11268013C52108A189A4200D1C6
:105340007EE1002CF6D18B46C74900230B9116A9AC
:10535000884616004246C54908930A91C44913ABD2
:105360001091C44905930D91C349139B0491119762
:10537000039203220C93F3681A40012A00D1EEE055
:105380001F221A40132A00D0D3E05B115A46916CB9
:105390005A00D3189B00CB185968072900D1C8E0E0
:1053A0005846FFF739FF0F2800D1C2E000251F2221
:1053B000C31C02401B2A00D124E10B9A059838A98E
:1053C000FCF7CCF9002D00D1B9E05846E969FFF7A8
:1053D00023FF0F2800D157E11F23C21C034009926D
:1053E0001B2B00D119E1331F1B68286A5B10013B9E
:1053F0009946072800D1ABE0431E1968C21C0B096F
:1054000002309A4606921A187F23AF680024984605
:10541000013F08E041461378E40119405BB20C43B8
:10542000013A002B01DA8242F4D1A0464C4500D269
:10543000C84600233A6816931209944200DB87E0BD
:105440002B785B0600D59BE00123994643460796DF
:10545000B8465646012592461F0009E043461B19EF
:105460001B79049A9B00D35CE418544500DBDFE011
:105470003100039A0698FBF7D3FA4B4603405B4290
:1054800040084340ED18BC42E8D10023079E079333
:10549000059F7A4A3800099B38A9FCF75FF9002D6F
:1054A0000AD0774C2B002200380038A9FCF756F9B7
:1054B000079B002B00D0CBE00D9A059838A9FCF78C
:1054C0004DF90A9A38A90598FCF748F9139B38A9B1
:1054D0005A1C914200D8FAE05A463668089976106C
:1054E000926801315E440891964202D00A2900D0A8
:1054F0003FE7039B119F98465B4642465B6B18A8AB
:1055000053605B465A63169716F010F918A902000B
:10551000584600F027FA42465946169B5268013B0E
:105520004A63186139B0F0BCBB46B246A946A046F2
:10553000F0BD544B0B9A059838A9FCF70FF9109A57
:10554000059838A9FCF70AF9BBE70F9B0E9E9B460E
:105550004A4A099B059838A9FCF700F9ACE70E22E6
:10556000013B19780A40022AE3D1FF211A88090178
:105570000A40302A00D18AE0202ADAD1DB6805E728
:1055800001230E96564692465A469946079343463D
:105590000F92069AB846012593461F0017E0584619
:1055A000FBF73EFA4B46079A034094465B4240089D
:1055B00043409C4463460793BC421FD043461B199B
:1055C0001B79049A9B009B5CE4185445BDDA3100BA
:1055D000039A5846FBF724FA02004846104040421E
:1055E000520850403100039A2D180028D7D0584651
:1055F000FBF716FA431C0793BC42DFD10F9B0E9EAC
:105600009B4645E7411114AC7F291DD8012021702C
:105610000023201803702300CFE6411114AC7F292A
:105620001CD8012021700023201803700994DAE6A9
:10563000124A099B059838A9079EFCF78FF83BE7AB
:105640008B4616AB984657E720000DF095FFDFE735
:105650002200059838A9FCF781F82DE720000DF00D
:105660008BFFE0E798BD0110ACBD01109CB80110A4
:10567000C4BD0110CCBD0110ECDA0110B8BD0110A1
:10568000C0BD01108CBD011000230993ABE6DD689D
:10569000013D696807290CD05846FFF7BDFD0F286A
:1056A00000D084E60D4B0B9A059838A9FCF756F804
:1056B0008BE65B46DB6B19006D31663305D05846CF
:1056C000FFF7AAFD0F2800D071E6044B75E6039B97
:1056D0000C9A98460023119F13700DE78CBD0110A2
:1056E0000CB4F0B5D6464F464646A723C0B5AAB07F
:1056F00006AD6B446B600023984632AA0E0002CAC6
:1057000004000AAFAB60280006970392FBF74EFD3A
:105710004246069B38001A7016F008F8390002005D
:10572000200000F01FF9330024339B00E3185B686E
:1057300004AF9C466F600693E368626B99464946E6
:1057400063687A60C91A8A46A16904901431656356
:105750008A452AD3190014316160334919606146C2
:105760005960882161589960591C62630E2B09D0D9
:10577000D860072018610D2E0ED184230022E1503D
:10578000603BE2540F202AB0E0BCBA46B146A846BE
:10579000F0BC08BC02B0184704386A606563069123
:1057A0000840012814D06263E7E701212000FCF7DC
:1057B000F3F82000FBF78EF94A46A16963681431BB
:1057C000D21A8A4214D306997A688C460498C1E7A3
:1057D0001B8816480340922BE5D1002300222000AD
:1057E00001930093FFF782FD6A6806996263C4E73C
:1057F0001C256557002D08D084230722E25042461D
:10580000603BE2547B686363BCE701232377FF338B
:10581000A36110212000064AFFF762FF80239B004E
:105820002577A361EEE7C04692200000FE0F00003E
:1058300078BC01100B4B10B54384836D0400002B22
:1058400003D0016E9847002801D10B2010BD064AF5
:1058500010212000FFF744FF242301220F20E254EF
:10586000F4E7C04610270000D0BD011070B51C251C
:1058700045570400002D08D084230722C25000227F
:10588000603BC2540120404270BD01230377FF33C7
:1058900083611021034AFFF723FF80239B002577B4
:1058A000A361EFE778BC011070B515008369426809
:1058B000EB1804000E008A1A9A4201D3002070BD32
:1058C0000121FCF769F82000FBF704F96368F61A78
:1058D000A369ED18AE42F1D22000FFF7C7FF012007
:1058E0004042ECE7F0B5C64600B504680500236900
:1058F000E26882B0934206D9043B2361196002B08A
:1059000080BCB846F0BD1E006F46626B606894466E
:105910000192A269443E4432A04667630091301A66
:10592000904204D342466046E6605063E4E70121BA
:105930002000FCF731F82000FBF7CCF8A36962687F
:105940004433B21A9A4206D32B6800999846019BB9
:105950009C462369E6E72000FFF788FF2800FBF755
:10596000F5FFC046F0B54746CE4680B506000F00AD
:10597000150083B0002A48D00C787F2C32DC012A35
:105980003FD080239B049D425BD22B00032208332F
:10599000934398467468F36899461A1BB369434465
:1059A0009A423BD34346E31873600623EA0113434C
:1059B0000022236063191A713B00E9191A787F2AC3
:1059C0002AD801338B42F9D10122202123785201B8
:1059D0008B43134339002A002370201D11F024FB50
:1059E000601C14E0BF2C05DDDF2C31DDEF2C35DD34
:1059F000F72C30DD012DC4D1380001A90DF074FE63
:105A000004001B206401204301E0C06B6D3003B033
:105A1000C0BCB946B046F0BD0022D6E70121300037
:105A2000FBF7BAFF3000FBF755F84B46B2697468D4
:105A300042441B1B9342B5D23000FFF717FF0F20E3
:105A4000E5E710213000074AFFF74AFE0F20DEE7A6
:105A5000022A96D1D0E7042A93D1CDE7032A00D0B9
:105A60008FE7C9E7DCBD0110F0B54746CE4680B5EB
:105A700004681E00636B83B09C466B4663635823C7
:105A80005B429946050020691700624681444B46F7
:105A900001926268E8469A1AA369009158339A42C3
:105AA00018D34B46E36063466363EB6E183820619E
:105AB00003600223041B64005B42EC6603610A9BE3
:105AC00041605B008760C660436103B0C0BCB946FB
:105AD000B046F0BD01212000FBF75EFF2000FAF781
