:020000041000EA
:1000000000B5324B212058609868022188439860DF
:10001000D860186158612E4B002199600221596106
:100020000121F02299502B49196001219960352056
:1000300000F044F80222904214D00621196600F024
:1000400034F8196E01211966002018661A6600F04E
:100050002CF8196E196E196E052000F02FF8012189
:100060000842F9D1002199601B49196000215960AB
:100070001A491B48016001219960EB211966A021F2
:10008000196600F012F800219960164914480160C1
:100090000121996001BC002800D000471248134993
:1000A000086003C880F30888084703B5996A0420EC
:1000B0000142FBD001200142F8D103BD02B5186610
:1000C0001866FFF7F2FF186E186E02BD00000240BE
:1000D000000000180000070000035F00212200005C
:1000E000F4000018222000A00001001008ED00E03C
:1000F00000000000000000000000000074B24E7A12
:1001000000200420F7010010CB010010CD010010E9
:10011000C9010010C9010010C9010010C901001077
:10012000C9010010C9010010C9010010CF01001061
:10013000C9010010C9010010D1010010D301001045
:10014000C1010010C1010010C1010010C101001067
:10015000C1010010C1010010C1010010C101001057
:10016000C1010010C1010010C1010010C101001047
:10017000C1010010C1010010C1010010C101001037
:10018000C1010010C1010010C1010010C101001027
:10019000C1010010C1010010C1010010C101001017
:1001A000C1010010C1010010C1010010C101001007
:1001B000C1010010C1010010C1010010C1010010F7
:1001C000EFF30580103800BE00BE00BE00BE00BECA
:1001D00000BE00BEF2EB8871B0E90210DCE902104B
:1001E0003802001090A31AE71E481F49086006C88D
:1001F00081F3088810471D480068002801D019487D
:10020000F3E70DA40ECC002902D000F012F8F9E7B4
:100210001749184A002000E001C19142FCD116495B
:100220008847164988471649884700BEFDE701C937
:1002300001C29A42FBD37047DCE90210C0000020E3
:10024000F81F0020140903100000042000000420FF
:100250001409031000100420001004200000000006
:10026000704700000000000008ED00E0000000D032
:10027000F81F00207C60002025220210A903001036
:10028000C7210210F8B5C04606480749091A8B1065
:10029000C90FC91810B5491003D0044B002B00D06A
:1002A000984710BDF81F0020F81F00200000000034
:1002B000054B10B5002B03D00449054800E000BFF2
:1002C000FFF7E2FF10BDC04600000000105E0020F6
:1002D000ECB7021080B582B000AF7860D0231B0667
:1002E0007A685A61C046BD4602B080BD80B582B012
:1002F00000AF7860D0231B067A689A61C046BD467D
:1003000002B080BD80B584B000AF78600A00FB1CED
:100310001A7001227B689A401300FB60FB1C1B785B
:10032000002B04D0FB681800FFF7D4FF03E0FB6844
:100330001800FFF7DBFFC046BD4604B080BD80B5A6
:1003400082B000AF7860D0231B067A685A62C0463C
:10035000BD4602B080BD80B582B000AF7860D023CA
:100360001B067A689A62C046BD4602B080BD80B561
:1003700084B000AF78600A00FB1C1A7001227B6811
:100380009A401300FB60FB1C1B78002B04D0FB6819
:100390001800FFF7D4FF03E0FB681800FFF7DBFF4E
:1003A000C046BD4604B080BD80B586B002AF22F025
:1003B00084F919201AF0C8FC01211920FFF7D7FF92
:1003C0000023FB6010E001211920FFF79BFF642050
:1003D0001CF093FD00211920FFF794FF64201CF00E
:1003E0008CFDFB680133FB60FB68042BEBDD224BCB
:1003F000180022F094F9214BBB60BA68204B110021
:10040000180022F0D1F9C0239901BB68002218001E
:1004100005F092FA03007B607B68002B15D0194B26
:10042000180022F07CF9184B1849786800220092D5
:10043000032217F053F903003B603B685A10144B3A
:100440001100180022F0B0F903E0124B180022F05E
:1004500066F901211920FFF755FFFA235B00180008
:100460001CF04BFD00211920FFF74CFFFA235B0025
:1004700018001CF042FDECE7F0B7021078210020D4
:100480001CB8021034B8021044B8021048B8021068
:100490004CB8021058B8021080B582B000AF786036
:1004A00039607B6830221A707B68013300221A7031
:1004B000C046BD4602B080BD80B582B000AF786056
:1004C00039607B6830221A707B68013300221A7011
:1004D000C046BD4602B080BD80B584B000AFF860B4
:1004E0003A607B60FB6830221A70FB68013300229F
:1004F0001A70C046BD4604B080BD80B584B000AF60
:10050000F8603A607B60FB6830221A70FB68013348
:1005100000221A70C046BD4604B080BD80B584B0CC
:1005200000AFF8603A607B60FB6830221A70FB68AD
:10053000013300221A70C046BD4604B080BD0000E1
:1005400080B584B000AFB860F9603A607B6000228B
:100550000023386879681EF02DF9031E02D00022AE
:10056000074B07E03A687B68B868F9681FF0C6FA7D
:1005700002000B0010001900BD4604B080BDC0464B
:100580000000F87F80B584B000AFB860F9603A60D1
:100590007B600022104BB868F9681EF00BF9031E4F
:1005A00002D000220C4B12E0002200233868796848
:1005B0001EF000F9031E02D00022074B07E03A6844
:1005C0007B68B868F9681FF0B1F802000B001000F2
:1005D0001900BD4604B080BD0000F03F80B582B078
:1005E00000AF386079603A687B68386879681EF0D7
:1005F00004F9031E01D000231BE0104A104B386899
:1006000079681EF0F5F8031E01D00E4B11E00022B0
:100610000D4B386879681EF0D5F8031E02D0802390
:100620001B0606E03A687B68100019002BF094F86E
:1006300003001800BD4602B080BDC0460000C0FFE8
:10064000FFFFDF41FFFFFF7F0000E0C180B582B008
:1006500000AF78607B680021180029F03BFB0200A6
:100660000B0010001900BD4602B080BD80B584B0FB
:1006700000AFF8603A607B603A687B680449F868CC
:1006800021F0BAFC03001800BD4604B080BDC0468E
:1006900080B8021080B584B000AFF8603A607B602B
:1006A0003A687B68F9680800FFF7E0FFC046BD467E
:1006B00004B080BD80B582B000AF3860796020237F
:1006C0001800BD4602B080BD80B582B000AF786032
:1006D00039607A683B689A4201DD7B6800E03B68DC
:1006E0001800BD4602B080BD80B582B000AF786012
:1006F00039607A683B689A4201DA7B6800E03B68BF
:100700001800BD4602B080BD80B582B000AF7860F1
:1007100039607A683B689A4201D97B6800E03B689F
:100720001800BD4602B080BD80B582B000AF7860D1
:1007300039607A683B689A4201D27B6800E03B6886
:100740001800BD4602B080BD80B582B000AF7860B1
:1007500039607A683B689A4201D97B6800E03B685F
:100760001800BD4602B080BD80B582B000AF786091
:1007700039607A683B689A4201D27B6800E03B6846
:100780001800BD4602B080BD80B582B000AF786071
:1007900078681DF0D7FC03001800BD4602B080BD8C
:1007A000B0B582B000AF78607B681A7859780902DA
:1007B0000A43997809040A43D97809060A431400C0
:1007C0001A79597909020A43997909040A43DB79AC
:1007D0001B0613431D0022002B0010001900BD460C
:1007E00002B0B0BD80B584B000AFF8603A607B6005
:1007F000FB683A0010781A7800210A40111C021C8C
:100800000A431A707A1C10785A7800210A40111C89
:10081000021C0A435A70BA1C10789A7800210A40C8
:10082000111C021C0A439A70FA1C1078DA78002115
:100830000A40111C021C0A43DA703A1D10781A791A
:1008400000210A40111C021C0A431A717A1D1078FB
:100850005A7900210A40111C021C0A435A71BA1D20
:1008600010789A7900210A40111C021C0A439A71DF
:10087000FA1D1078DA7900210A40111C021C0A4383
:10088000DA71C046BD4604B080BD80B582B000AF0D
:1008900078607B681A78597809020A4399780904C4
:1008A0000A43DB781B0613431800BD4602B080BD27
:1008B00080B582B000AF786039607B683A0010780C
:1008C0001A7800210A40111C021C0A431A707A1C73
:1008D00010785A7800210A40111C021C0A435A70F1
:1008E000BA1C10789A7800210A40111C021C0A4395
:1008F0009A70FA1C1078DA7800210A40111C021C48
:100900000A43DA70C046BD4602B080BD80B582B0F1
:1009100000AF78607B681A785B781B0213439BB248
:100920001800BD4602B080BD80B582B000AF7860CF
:100930007B681A785B781B0213439BB21BB21800CA
:10094000BD4602B080BD90B583B000AF78600A00AC
:10095000BB1C1A807B68BA1C1478197800200140EF
:10096000081C211C0143197050785A7800210A4054
:10097000111C021C0A435A70C046BD4603B090BD0C
:1009800080B582B000AF78607B681B781800BD46E8
:1009900002B080BD80B582B000AF78607B681B7804
:1009A0005BB21800BD4602B080BD80B582B000AF1A
:1009B00078607B681A0E7B68190AFF231B020B40C4
:1009C0001A437B681902FF231B040B401A437B6800
:1009D0001B0613431800BD4602B080BD80B582B02F
:1009E00000AF78607B681800FFF74FFF0300180026
:1009F000FFF7DBFF03001800BD4602B080BD80B5E5
:100A000082B000AF786039603B681800FFF7CDFF17
:100A100002007B6811001800FFF74AFFC046BD4680
:100A200002B080BD80B582B000AF786039603B68AD
:100A30007F2B05D83B68DAB27B681A70012306E089
:100A40003A687B681100180019F0CAFE030018000C
:100A5000BD4602B080BD80B584B000AFF860B9601B
:100A60007A60FB681B785BB2002B05DB7B68012298
:100A70001A60FB681B7806E07A68B968FB681800A2
:100A800019F01AFF03001800BD4604B080BD80B500
:100A900082B000AF78607B682F2B05DD7B68392B37
:100AA00002DC7B68303B13E07B68402B05DD7B6814
:100AB000462B02DC7B68373B0AE07B68602B05DD58
:100AC0007B68662B02DC7B68573B01E001235B42BD
:100AD0001800BD4602B080BD80B584B000AF38605C
:100AE00079603A687B68BA60FB60BA68FB6810009E
:100AF0001900BD4604B080BD80B582B000AF7860FB
:100B00007B68012213405A425341DBB21800BD46B4
:100B100002B080BD80B582B000AF78607B680322F0
:100B20001340013B5A425341DBB21800BD4602B0AC
:100B300080BD80B582B000AF78607B68073B5A42C9
:100B40005341DBB21800BD4602B080BD80B582B013
:100B500000AF78607B680B3B5A425341DBB2180010
:100B6000BD4602B080BD80B582B000AF78607B68C2
:100B70000F3B5A425341DBB21800BD4602B080BD64
:100B800080B582B000AF78607B68002B01D0232352
:100B900000E003231800BD4602B080BD80B582B0DE
:100BA00000AF786039607B68DA6B3B689B00D318D4
:100BB00001331800BD4602B080BD80B582B000AFE1
:100BC00078607B681F2213400F3B5A425341DBB2CF
:100BD0001800BD4602B080BD80B582B000AF78601D
:100BE0007B681B781B075B0FDBB21800BD4602B0A9
:100BF00080BD80B584B000AFF860B9607A60FB68F2
:100C00005B68BA68D31A1900FB689A697B68D318C5
:100C1000994215D2FB68180017F0BFFCFB685B68AF
:100C2000BA68D31A1900FB689A697B68D31899428D
:100C300006D2FB68180000F0F3FC01235B4200E0E1
:100C400000231800BD4604B080BD80B584B000AF5D
:100C5000786039603B6810333B607B681A693B6899
:100C60009B005B42D318FB603B689A00F9687B6885
:100C70001800FFF7BEFF031E02D001235B4203E012
:100C80007B68FA68DA6000231800BD4604B080BDB6
:100C900080B586B000AFF860B9607A60BB68002BA1
:100CA00001D1002333E0BB68033303229343BB60CD
:100CB000FB68D968BA68FB681800FFF79AFF031E43
:100CC00001D0002323E0FB685B687B61FB685A6806
:100CD000BB68D218FB685A607B681A1C0723134054
:100CE000DAB27B6907210A4090181A780E218A43EC
:100CF000111C021C0A431A707B691A7801218A436D
:100D00001A707B691A680F210A401A607B69180003
:100D1000BD4606B080BD80B586B000AFF860B96052
:100D20007A607A68B968FB681800FFF7B1FF0300C2
:100D30007B617B69002B01D100230BE0BB68042B96
:100D400007D97B69181DBB68043B1A0000211FF0FE
:100D500017FD7B691800BD4606B080BD80B584B024
:100D600000AF786039603B68002B13D03B68FB60B4
:100D7000FB68180016F0D8FC03001A00FB689B18EB
:100D8000FB607B685B68FA689A4204D17B683A68CA
:100D90005A6000E0C046BD4604B080BD80B584B056
:100DA00000AF786039607B68FB60FB681A780E21C1
:100DB0008A431A70FB681A7801218A431A703B68CB
:100DC000043B9B081B011A09FB68120119680F20DC
:100DD00001400A431A60C046BD4604B080BD80B5DC
:100DE00086B000AFF860B9607A607B680333032295
:100DF00093437B607B68002B07D1BA68FB681100C6
:100E00001800FFF7ABFF002317E0BB68180016F0CF
:100E10008BFC03007B617A697B68D31A3B613B6979
:100E2000002B01D1BB6808E0BA687B68D3183A6927
:100E300011001800FFF7B2FFBB681800BD4606B0EE
:100E400080BD80B582B000AF786039607B68842156
:100E50003A685A507B682422002199540F231800C5
:100E6000BD4602B080BD80B584B000AF7860396007
:100E70003B685B111A007B6811001800FFF7D2FD78
:100E80000300FB60FB687A68D31800221A70FB68C5
:100E90001800BD4604B080BD80B582B000AF786058
:100EA0007B682F2B04DD7B68392B01DC012300E0FC
:100EB00000231800BD4602B080BD90B58BB000AFD6
:100EC000F860B9603B60FB1D1A70BA6B3B689A42D0
:100ED00028DA3A68BB6BD31A3B60FB1D1C783B6871
:100EE00019001020FFF700FC03001A001423FB1860
:100EF000210018001FF044FC10E03B68102118008E
:100F0000FFF7F2FB03007B627A6A1423F918B868D2
:100F1000FB6898473A687B6AD31A3B603B68002BB2
:100F2000EBD100E0C046BD460BB090BDB0B59CB063
:100F300002AF78613961FA60BB603DE2FB683B65F6
:100F400002E0FB680133FB60FB681B78252B03D0B4
:100F5000FB681B78002BF4D1FA683B6D9A4207D9E5
:100F6000FA683B6DD31A1A00396D38697B69984766
:100F7000FB681B78002B00D124E2FB680133FB6087
:100F80000023FB65FB681B78FB64FB6C302B04D1F2
:100F9000FB6D01221343FB651EE0FB6C232B04D188
:100FA000FB6D02221343FB6516E0FB6C2B2B04D177
:100FB000FB6D04221343FB650EE0FB6C2D2B04D16B
:100FC000FB6D08221343FB6506E0FB6C202B07D169
:100FD000FB6D04221343FB65FB680133FB60D1E723
:100FE000C04600237B66FB681B782A2B13D1BB68A5
:100FF0001A1DBA601B687B6614E07A6E13009B00B2
:101000009B185B001A00FB681B78D318303B7B668B
:10101000FB680133FB60FB681B781800FFF73CFF9F
:10102000031EEAD100233B66FB681B782E2B21D1DF
:10103000FB680133FB60FB681B782A2B13D1BB686C
:101040001A1DBA601B683B6614E03A6E13009B00E1
:101050009B185B001A00FB681B78D318303B3B667B
:10106000FB680133FB60FB681B781800FFF714FF77
:10107000031EEAD1FB681B78FB64FB6C6C2B09D167
:10108000FB68013B1B786C2B0AD1FB6D20221343BC
:10109000FB6505E0FB6C7A2B02D0FB6C742B03D153
:1010A000FB680133FB60E5E7FB685A1CFA601B78BC
:1010B000FB64142308229B18DB19BB6500237B65A6
:1010C000FB6C252B15D0FB6C252B00DA7CE1FB6C2F
:1010D000782B00DD78E1FB6C632B00DA74E1FB6CAC
:1010E000633B152B00D96FE19A00BA4BD3181B68EC
:1010F0009F46FB68591E38697B69012298472EE19B
:10110000BB681A1DBA601B68DAB2BB6D1A70012386
:101110007B65FB6D01229343FB6520E1BB681A1DD3
:10112000BA601B68BB65BB6D002B01D1AA4BBB65C8
:10113000BB6D180028F020FF03007B65FB6D0122CA
:101140009343FB650BE1FB6D202213400FD0BB687E
:101150000733072293431A000832BA601A685B68A3
:10116000B96D0800FFF7C9F903007B65F7E0BB68BC
:101170001A1DBA601A68BB6D11001800FFF79CF9C0
:1011800003007B65EBE0FB6D202213400FD0BB68B2
:101190000733072293431A000832BA601A685B6863
:1011A000B96D0800FFF798F903007B65D7E0BB68CD
:1011B0001A1DBA601A68BB6D11001800FFF76CF9B0
:1011C00003007B65CBE0FB6D2022134011D0BB6890
:1011D0000733072293431A000832BA601A685B6823
:1011E000B96D102000900800FFF798F903007B65A7
:1011F000B5E0BB681A1DBA601B681C0000231D0007
:10120000B96D1023009322002B000800FFF786F928
:1012100003007B65A3E0BB6D30221A70BB6D013308
:1012200078221A70BB6D991CBB681A1DBA601B68C6
:101230003B6000237B60102300933A687B680800C2
:10124000FFF76CF903007B657B6D02337B6586E0FD
:10125000FB6D202213400AD0BB680733072293435B
:101260001A000832BA601A685B68130003E0BB68B2
:101270001A1DBA601B68BB64BB6C1800FFF73CFC0E
:10128000031E09D0BB6C5A10BB6D11001800FFF78C
:1012900013F903007B654CE0BB6C1800FFF73AFCC8
:1012A000031E27D1BB6C1F221340033B182B1ED8F3
:1012B0009A004A4BD3181B689F46474BBB6531E0E9
:1012C000474BBB652EE0474BBB652BE0BB6C5B110E
:1012D00001D0454B00E0454BBB6523E0BA6CBB6DCC
:1012E00011001800FFF7BFFD03007B6521E0404BB4
:1012F000BB6517E0BB6C013B7B647B6C1B781B07F9
:101300005B0FDBB23B643B6C032B09D17B6CFB6353
:10131000FB6B0433BB65FB6B1B68DB097B6508E07B
:10132000344BBB65BB6D180028F026FE03007B65BF
:10133000C046FB6D022213400CD07B6D002B09D000
:101340007B6D013BBA6DD3181B780A2B02D17B6DE4
:10135000013B7B65FB6D01229343FB65C046FB6D42
:101360000122134009D07B6D7A6E39697869009348
:1013700013003022FFF7A1FD0CE0FB6D08221340A3
:1013800008D17B6D7A6E3969786900931300202249
:10139000FFF793FD7A6DB96D38697B699847FB6DEE
:1013A0000822134008D07B6D7A6E39697869009302
:1013B00013002022FFF781FDFB681B78002B00D073
:1013C000BCE503E0C04601E0C046C046BD461AB0D9
:1013D000B0BDC046F4CB0210D4B802104CCC021001
:1013E000DCB80210E8B80210F8B8021000B9021018
:1013F00008B9021010B9021080B586B000AFF860CD
:10140000B9607A60FB687B617B699B681A007B68C6
:10141000D3181A007B699A607B695A687B691B68DC
:10142000D31A1A007B6811001800FFF79DF903001A
:101430003B613B69002B0CD07B691B683A69B9683A
:1014400018001FF0A3F97B691A683B69D2187B6901
:101450001A60C046BD4606B080BD000080B588B0A9
:1014600000AFF860B9607A603B601023FB18FB6145
:10147000FB69FA681A60BB6801211800FFF764F97C
:101480000300013BFA68D218FB695A60FB6900222D
:101490009A603B687A68F9690748FFF747FDBB68BF
:1014A000002B03D0FB691B6800221A70FB699B6844
:1014B0001800BD4608B080BDF91300100CB480B50B
:1014C00084B000AF786039601C23FB18BB60BB6838
:1014D000BA6939687868FFF7C1FF0300FB60FB68F1
:1014E0001800BD4604B080BC08BC02B018470CB45C
:1014F000B0B5ACB002AF78600A00FB1C1A70B42320
:1015000008201B18DB199822B9180B60BB181B6840
:10151000B0221218D2191268182438198021FFF746
:101520009DFF3A197B681100180000F01DFC0300B4
:10153000A0257A1913607B685A6B10243B195A60F6
:101540007B683A195A633B197A1912681A60FB1CB6
:101550001B787A6824339B00D318043319687868A1
:101560000823092202F02EF80300A4217A18136040
:101570003B191B687A1913603B195A687B685A63D8
:101580000C007B181B681800FFF7EDFA031E02D051
:101590003B191B683DE0A4217B181B68013B9C2084
:1015A0003A1813603B181B68A022BA181268DA6058
:1015B0003B181B6807221A61FB1C1B780D2B1FD0E0
:1015C0007B685A6B08243B195A607B683A195A6346
:1015D0003B197A1812681A600D007B181968786830
:1015E00000230193002300930023002204F08EFCCB
:1015F0003B191B687A1913603B195A687B685A6358
:10160000A423FB181A687B6811001800FFF719FC67
:1016100003001800BD462AB0B0BC08BC02B0184791
:1016200080B584B000AF78607B681B7F5BB2002B15
:1016300006D07B6807211800FFF703FC030016E0C3
:101640007B6801221A777B68802252009A610A4ADD
:101650007B6810211800FFF74AFF0300FB607B68DE
:1016600000221A777B68802292009A61FB6818003A
:10167000BD4604B080BDC04618B9021080B586B022
:1016800000AFF8603A607B60FB6802220C21180012
:10169000FFF7FEFA03007B617B69002B01D10F236A
:1016A00006E07B693A685A607A689A607B69013320
:1016B0001800BD4606B080BD80B584B000AFF860AC
:1016C0003A607B603A687B6810001900FFF704FA03
:1016D00002000B00002A07D1802109068B4203D1AA
:1016E000FB6890229B5806E03A687B68F96808001E
:1016F000FFF7C4FF03001800BD4604B080BD80B5ED
:1017000082B000AF78607B685B001800BD4602B015
:1017100080BD0000B0B586B000AFF8603A607B6075
:1017200000221E4B386879681DF05AF8031E2AD033
:101730001B4A1C4B386879681DF04AF8031E22D0FA
:10174000386879681DF082F803007B613A687B682D
:1017500010001900FFF7C0F904000D0078691DF0B2
:101760005DF802000B0010001900FFF7B5F9020048
:101770000B00944207D19D4205D17B691800FFF709
:10178000BEFF030006E03A687B68F9680800FFF7CF
:1017900093FF03001800BD4606B0B0BD0000D0C1E5
:1017A000000080FFFFFFCF4180B582B000AF3860FE
:1017B00079607B68013314DB7B68013304D13A68BC
:1017C000C0231B069A420CD37B68002B09DC7B6884
:1017D000002B04D13A688023DB059A4201D2012311
:1017E00000E000231800BD4602B080BD80B586B081
:1017F00000AFF8603A607B603A687B6810001900BF
:10180000FFF7D2FF03005A1E9341DBB2002B06D034
:101810003B681800FFF773FF03007B610BE038683B
:1018200079681DF04FF802000B00F9680800FFF717
:1018300043FF03007B617B691800BD4606B080BD95
:1018400080B582B000AF7860396039680A00C91786
:101850000B0079680800FFF7C9FF03001800BD46B8
:1018600002B080BD80B582B000AF78603960396861
:101870000A0000210B0079680800FFF7B7FF03009A
:101880001800BD4602B080BD80B582B000AF786060
:1018900039603B681800FFF73DF9031E07D13B682C
:1018A0001F221340133B5A1E9341DBB209E03B68F1
:1018B000013B1800FFF790F90300013B5A1E9341CA
:1018C000DBB21800BD4602B080BD80B584B000AF69
:1018D000786039603B681800FFF71CF9031E01D1DE
:1018E00000230BE03B68013BFB60FB681B780E228A
:1018F0001340DBB2023B5A425341DBB21800BD46F3
:1019000004B080BD80B586B000AFF860B9607A6081
:10191000BB681800FFF7FEF8031E01D1002315E095
:10192000BB68013B7B617B691B780E221340DBB2F5
:10193000022B08D17B691B881B051B0EDBB21A002A
:101940007B68934201D0002300E07B691800BD460C
:1019500006B080BD80B584B000AF786039603B6868
:101960001800FFF7D7F8031E07D13B681F2213406A
:10197000133B5A425341DBB21CE03B68013BFB6026
:10198000FB681B780E221340DBB2022B11D1FB68DF
:101990001A88FF231B0113409BB2302B07D0FB6832
:1019A0001A88FF231B0113409BB2202B01D1012376
:1019B00000E000231800BD4604B080BD80B584B0AF
:1019C00000AF786039603B681800FFF7A3F8031E8A
:1019D00001D100231CE03B68013BFB60FB681B78E6
:1019E0000E221340DBB2022B11D1FB681A88FF23B1
:1019F0001B0113409BB2302B07D0FB681A88FF23D2
:101A00001B0113409BB2202B01D1012300E00023D6
:101A10001800BD4604B080BD80B584B000AF7860CA
:101A200039603B681800FFF775F8031E01D10023E9
:101A300014E03B68013BFB60FB681B780E221340FF
:101A4000DBB2022B09D1FB681A88FF231B0113406C
:101A50009BB2902B01D1012300E000231800BD466A
:101A600004B080BD80B584B000AF786039603B6859
:101A7000BB60BB681800FFF73FF8031E01D00123CD
:101A800013E03B681800FFF745F8031E0CD03B68D5
:101A9000013BFB60FB681800FFF79EF80300023B68
:101AA0005A425341DBB200E000231800BD4604B0A7
:101AB00080BD80B584B000AF786039603B681800A5
:101AC000FFF728F8031E07D13B681F2213401B3B7A
:101AD0005A425341DBB20BE03B68013BFB60FB68C1
:101AE0001800FFF779F80300033B5A425341DBB279
:101AF0001800BD4604B080BD80B584B000AF7860EA
:101B000039603A6880239B049A4207D31C4A7B6859
:101B100010211800FFF7EBFC00232DE03B68591D56
:101B20007B6803221800FFF7B3F80300FB60FB6833
:101B3000002B01D100231FE0FB681A7810218A4393
:101B40001A70FB681A7820218A431A70FB681A7889
:101B500040218A431A703B68DB01DA09FB68D20135
:101B600019687F2001400A431A60FA683B68D3185D
:101B7000043300221A70FB681800BD4604B080BD13
:101B800028B9021080B582B000AF78607B685B0135
:101B90001B2213431800BD4602B080BD80B584B03F
:101BA00000AF786039600023FB600BE07A68FB6867
:101BB000D3181B785BB2002B01DA002307E0FB6827
:101BC0000133FB60FA683B689A42EFD301231800A7
:101BD000BD4604B080BD80B586B000AFF860B96086
:101BE0007A607B681F2213401B2B2DD1BB687B6161
:101BF0007B691A7810218A431A707B685B117F22F7
:101C0000D80FD1179A4248410300DAB27B6901210B
:101C10000A4050011A7820218A43111C021C0A43F1
:101C20001A707B6904337A6811001800FFF71BF9FA
:101C30000300DB01DA097B69D20119687F200140CA
:101C40000A431A607B6901E07B68013B1800BD46CE
:101C500006B080BD80B58CB000AFF860B9607A6026
:101C60007B68002B06D1FB681B211800FEF796FF4E
:101C7000030075E0BB681B787B627B6A7F2B02DC0C
:101C800001233B6219E07B6ABF2B02DC01233B622C
:101C900013E07B6ADF2B02DC02233B620DE07B6AF0
:101CA000EF2B02DC03233B6207E07B6AF72B02DCAD
:101CB00004233B6201E001233B623B6A1A007B681C
:101CC000934221D1BB68FB611423FB18BB61FB6904
:101CD0001B785BB2DB43DBB2DB09DBB2002B05D048
:101CE000BB6901221A60FB691B7806E0BA69FB69CF
:101CF0001100180018F012FF0300BB62BB6A180045
:101D0000FFF740FF03002BE07A68FB681100180022
:101D1000FFF7F2FE0300FB62FB6A002B01D10F23E9
:101D20001EE07A68BB6811001800FFF737FF030058
:101D30001A1C01231340DAB2FB6A01210A40500148
:101D40001A7820218A43111C021C0A431A70FB6A6C
:101D500004337A68B96818001EF018FDFB6A013375
:101D60001800BD460CB080BD80B582B000AF786071
:101D700039603B68180028F0FFF8020039687B687A
:101D80001800FFF767FF03001800BD4602B080BDD2
:101D900080B58CB000AFF860B9607A603B60BB681A
:101DA000013BFB627B68002B06D1FB681B211800FE
:101DB000FEF7F4FE03007EE0FB6A1B797B627B6A20
:101DC0007F2B02DC01233B6219E07B6ABF2B02DC24
:101DD00001233B6213E07B6ADF2B02DC02233B62C0
:101DE0000DE07B6AEF2B02DC03233B6207E07B6A9A
:101DF000F72B02DC04233B6201E001233B623B6AD8
:101E00007A689A4220D1FB6A0433FB611423FB18E1
:101E1000BB61FB691B785BB2DB43DBB2DB09DBB286
:101E2000002B05D0BB6901221A60FB691B7806E014
:101E3000BA69FB691100180018F070FE0300180061
:101E4000FFF7A0FE030036E07B685A1C0823F91850
:101E5000FB68180001F031FBFB6ABB62BB6A1A78B1
:101E60000E218A43111C06220A431A703B681A1C71
:101E700001231340DAB2BB6A01210A4050011A78EB
:101E800020218A43111C021C0A431A70BB6A1A786B
:101E900010218A431A70BB6A1A7840218A431A704B
:101EA0007B68DB01DA09BB6AD20119687F20014037
:101EB0000A431A60BB681800BD460CB080BD80B5EF
:101EC00082B000AF78607B681B789A01F0239B009A
:101ED0001A407B6801331B7819003F230B401343E2
:101EE00001220F2B01DC00231A1CD3B21800BD46BF
:101EF00002B080BD80B598B000AFF860B9607A607C
:101F00001A00FB1C1A70BA681023F918FB68180035
:101F1000FFF761FE03007B637B6B1B68DB09BB651E
:101F20007B6B1B7820221340DBB2002B15D0FB1CEF
:101F30001B78002B08D1BA6D7B685B081900100074
:101F4000FEF7D2FB03004BE1BB6D7A68110018006D
:101F5000FEF7CAFB03005B0042E1FB1C1B78002B71
:101F600007D17B68012213403B647B685B087B6080
:101F700001E000233B640023BB64BB6D0F2B04D83E
:101F80000023FB640023FB6569E07B683B6500235D
:101F9000BB632CE0BA6B13005B009B189B0068339B
:101FA000FA68D318BB62BB6A1B68BA689A421BD135
:101FB000FB1C1B78BA6A9B00D31804331B687B6236
:101FC0007A6A7B689A4203D37A6A7B68D31A02E002
:101FD0007A687B6AD31A7B627A6A3B6D9A4203D233
:101FE0007B6A3B65BB6ABB64BB6B0133BB63BB6B8A
:101FF000012BCFDDBB6C002B20D1FB689B7F1A002F
:1020000013005B009B189B006833FA68D318BB640D
:10201000FB689B7F0133DAB2FB689A77FB689B7F92
:10202000022B02D1FB6800229A77BB6CBA681A6057
:10203000BB6C00225A60BB6C00229A60BB6C5B6870
:10204000FB65BB6C9B68FB64FB1C1B78BA6C9B003C
:10205000D31804331B687A689A425FD3C0460023C2
:102060007B64FB1C1B78002B04D15F4BFB637B68FC
:10207000BB654EE07B68FB634BE0FA6CFB6B9A42FE
:1020800000D195E07A6BFB6DD31804331B783B626B
:102090003B6A7F2B02DC0123FB6119E03B6ABF2B0B
:1020A00002DC0123FB6113E03B6ADF2B02DC02232D
:1020B000FB610DE03B6AEF2B02DC0323FB6107E0D1
:1020C0003B6AF72B02DC0423FB6101E00123FB6187
:1020D000FB69FB62FB6A042B14D17B6B1A1DFB6D41
:1020E000D3181800FFF7EBFE031E0BD0FB6C013377
:1020F000FA6B9A4202D101237B645CE0FB6C0233F1
:10210000FB6402E0FB6C0133FB64FA6DFB6AD318DD
:10211000FB65FA6DBB6D9A42AFD34CE000237B6444
:10212000FB1C1B78002B04D17B687B652E4BFB636B
:1021300039E07B68FB6300237B6534E0FB6D3B6328
:10214000FB6D013BFB6502E0FB6D013BFB657A6BC0
:10215000FB6DD31804331B781A00C0231340802B67
:10216000F2D03A6BFB6DD31AFB62FB6A042B13D1DE
:102170007B6B1A1DFB6DD3181800FFF7A0FE031E22
:102180000AD0FB6C023BFB64FB6C0133FA6B9A4296
:1021900005D101237B640EE0FB6C013BFB64FA6C10
:1021A000FB6B9A4206D0FA6D7B6D9A42C6D802E06C
:1021B000C04600E0C046BB6C002B05D0BB6CFA6D7E
:1021C0005A60BB6CFA6C9A60FB1C1B78002B03D125
:1021D000FA6C3B6CD31803E0FB6D5A007B6CD31890
:1021E0001800BD4618B080BDFFFFFF7F80B584B0EA
:1021F00000AFF860B9607A607A68B968F86801235E
:10220000FFF778FE03001800BD4604B080BD80B51E
:1022100084B000AFF860B9607A607A68B968F8682D
:102220000023FFF767FE03001800BD4604B080BD21
:1022300080B582B000AF78607B681B78ED2B0BD146
:102240007B6801331B789F2B06D97B6801331B7891
:10225000AF2B01D8012300E000231800BD4602B0D7
:1022600080BD80B582B000AF78607B681B78ED2BB5
:102270000BD17B6801331B78AF2B06D97B68013308
:102280001B78BF2B01D8012300E000231800BD46B6
:1022900002B080BD80B586B000AFF860B9607A60EA
:1022A000BB6800229A60BB680122DA607B68002B61
:1022B00012DD7A68FB681100180001F06DF8030068
:1022C0007B617B69002B02D101235B4214E07B69B7
:1022D0005A1CBB681A6007E0FB681B211800FEF758
:1022E0005DFC0200BB681A60FB685A6BBB685A60F1
:1022F000BA68FB685A6300231800BD4606B080BD6B
:10230000B0B59CB000AFF860B9607A60BB681B687C
:102310001800FEF728FC031E02D001235B4259E19E
:102320007A682423F918FB681800FFF754FC0300AF
:10233000BB66BB6E1B68DB09FB65FB6D002B01D127
:10234000002347E1BB681A68FB6811001800FFF71B
:10235000B0FB031E1ED0BB681A683023F918FB6857
:102360001800FFF738FC03003B653B6D1B68DB0979
:102370003B663B6E002B04D1BB687A681A60002371
:1023800028E10023FB66BB681B68BB65BB680722AE
:102390001A6008E0BB681B68013BFB66BB689B6872
:1023A0003B660723BB653A6EFB6DD3187B667A6E7E
:1023B00080239B049A420BDB884AFB68102118009B
:1023C000FFF795F80200BB681A6001235B4201E148
:1023D000FB6E002B06D0FB6E1B681B091A007B6E80
:1023E000934261DBFB685A6B1C243B195A60FB6803
:1023F0003A195A633B19BA6D1A60FB685A6B142577
:102400007B195A60FB687A195A637B197A681A60DB
:10241000BB6819687B6E5A1CFB68180000F0E9FF66
:102420000200BB681A607B191B687B607B195A68C5
:10243000FB685A633B191B68BB653B195A68FB680C
:102440005A63BB681B681800FEF78DFB031E02D0A1
:1024500001235B42BEE0BB681B68013BFB66BB6DB2
:10246000072B18D0BA6D3023F918FB681800FFF756
:10247000B2FB03003B653B6D1B789B06DB0FDBB2B9
:102480001A00BB68DA60FB6E181D3B6D04333A6EB0
:1024900019001EF07BF97A682423F918FB681800EC
:1024A000FFF799FB0300BB66FB6E1A1D3B6ED3184A
:1024B0007B65FB6D022B71DDBB6E04331800FFF7EB
:1024C000D0FE03005A1E9341DBB2002B66D03B6E58
:1024D000022B63DD7B6D033B1800FFF7A9FE031E93
:1024E0005CD07B6D033B3B641023FB18FB633B6CB0
:1024F0001B785BB2DB43DBB2DB09DBB2002B05D020
:10250000FB6B01221A603B6C1B7806E0FA6B3B6C9C
:102510001100180018F002FB03009B02304A134020
:10252000FB64BB6E0433BB641023FB187B64BB6C81
:102530001B785BB2DB43DBB2DB09DBB2002B05D0DF
:102540007B6C01221A60BB6C1B7806E07A6CBB6C5A
:102550001100180018F0E2FA03009B059B0DFA6CBD
:102560001343FB64FB6C8022520294466344FB6479
:102570007B6E023B7B66FB6D033BFB657B6D033B28
:102580007B65FA6C7B6D11001800FEF74BFA0200B8
:102590007B6D9B187B65BB680022DA60BB6E1A1DE1
:1025A000BB6E1B68DB091900FB6DCB1AD118FA6DE5
:1025B0007B6D18001EF0EAF8BB687A6E9A60BB6803
:1025C000DB68BA6E12789206D20FD2B21A40BB689C
:1025D000DA6000231800BD461CB0B0BD28B9021057
:1025E00000FC0F0080B584B000AFF860B9607A607D
:1025F0007B681800FFF7C6FA0200B968FB6818008C
:10260000FFF77EFE03001800BD4604B080BD80B514
:1026100084B000AF786039603B681B681800FEF733
:10262000A2FA031E08D13B681A687B6811001800E3
:10263000FFF73FFA031E03D03B681B68FB6018E0FE
:102640003B689B68002B09D03B681B68013BBB6063
:102650003B689B68BA68D31800221A713B681968F6
:102660003B689A683B68DB687868FFF791FB03007A
:10267000FB603B685A687B685A63FB681800BD467C
:1026800004B080BD80B58AB000AFF860B9607A60F0
:102690001423FB187B62BB681800FEF764FA031E64
:1026A00005D17B681800FEF75EFA031E01D00F23E8
:1026B00018E0796AFB6800221800FFF7EBFDBA68A2
:1026C000796AFB681800FFF71BFE7A68796AFB6875
:1026D0001800FFF715FE7A6AFB6811001800FFF773
:1026E00096FF03001800BD460AB080BD80B58CB0CF
:1026F00000AFF860B9607A60BA681C23F918FB680B
:102700001800FFF768FA0300FB627A681023F918D3
:10271000FB681800FFF75FFA0300BB62FB6A1B68E7
:10272000DA09BB6A1B68DB099A4201D000230DE07D
:10273000FB6A181DBB6A191DFB6A1B68DB091A00BE
:1027400027F0D6FA03005A425341DBB21800BD46C7
:102750000CB080BD80B586B000AF786002E07B68C9
:10276000013B7B607B681B781A00C0231340802BE1
:10277000F5D07B687B610C23FB183B617B691B7880
:102780005BB2DB43DBB2DB09DBB2002B05D03B697C
:1027900001221A607B691B7806E03A697B691100A7
:1027A000180018F0BBF903001800BD4606B080BD44
:1027B00080B592B000AFF860B9607A60BA68202343
:1027C000F918FB681800FFF706FA0300FB637A6844
:1027D0001423F918FB681800FFF7FDF90300BB6329
:1027E000FB6B1B68DB091A00BB6B1B68DB0919005C
:1027F0001000FDF779FF03007B6300237B640EE08C
:10280000FA6B7B6CD31804331A78B96B7B6CCB18DA
:1028100004331B789A4207D17B6C01337B647A6C5A
:102820007B6B9A42ECDB00E0C0467A6C7B6B9A4291
:102830005FD0FB6B1A1D7B6CD3181800FFF78AFF63
:1028400003003B63BB6B1A1D7B6CD3181800FFF7AA
:1028500081FF0300FB623A6B80235B029A4204DA39
:10286000FA6A80235B029A4209DB3A6B80235B029F
:102870009A420FDBFA6A80235B029A420ADB3A6BC8
:10288000FB6A9A4203DA01235B423B644AE001237C
:102890003B6447E03A6B80235B029A4214DAFB6A9E
:1028A000234A944663449B12D822120294466344FE
:1028B000FB623A6BFB6A9A4203DC01235B423B6496
:1028C00030E001233B642DE03B6B194A944663449E
:1028D0009B12D8221202944663443B633A6BFB6A14
:1028E0009A4203DA01235B423B641BE001233B6411
:1028F00018E0FB6B1B68DA09BB6B1B68DB099A42AB
:1029000002D100233B640DE0FB6B1B68DA09BB6B53
:102910001B68DB099A4203D201235B423B6401E05E
:1029200001233B643B6C1800BD4612B080BDC0461D
:102930000000FFFF80B58EB000AFF860B9607A602C
:102940003B607A68B968FB681800FFF74FFC03002A
:102950007B637B6B012213403B637B6B5B087B6378
:10296000BA681423F918FB681800FFF734F903005C
:10297000FB62FB6A1B68DB091A007B6B934202D384
:1029800001235B4241E0FB6A1A1D7B6BD3187B621B
:102990001023FB183B627B6A1B785BB2DB43DBB224
:1029A000DB09DBB2002B05D03B6A01221A607B6A8F
:1029B0001B7806E03A6A7B6A1100180018F0AEF83E
:1029C0000300BB62BA6A80235B029A4205D33B6B69
:1029D000002B04D13B68002B01D0BB6A15E0BB6A19
:1029E0000C4A94466344BB623B6B002B06D1BB6A26
:1029F0009B0AD82212029446634406E0BB6A9B05F8
:102A00009B0DDC221202944663441800BD460EB0B2
:102A100080BDC0460000FFFF80B582B000AF786087
:102A20007B682F2B04DD7B68392B01DC012300E060
:102A300000231800BD4602B080BD90B599B004AF28
:102A4000786039603B68013BBB64BB6C1B687F22CC
:102A5000934306D0BB6C1B7820221340DBB2002BC3
:102A600001D1002391E0BB6C04337B647B6C1B7849
:102A7000FB64FB6C2D2B0DD1BB6C1B687F22934339
:102A8000802B01D1002380E07B6C01337B647B6C65
:102A90001B78FB64FB6C1800FFF7BEFF031E01D11F
:102AA000002372E07B685A6B28243B195A607B68CC
:102AB0003A195A633B193A681A6094235B0019006B
:102AC000D820FDF701FE02007B681100180000F01D
:102AD00063FC03003B643B191B683B603B195A686D
:102AE0007B685A633B6C002B02D101235B424CE0B4
:102AF0003B68013BBB64BB6C181D3B6C043330224C
:102B0000B918009300230A22FDF7A0FD02000B0074
:102B1000BA63FB633A6BBB6C0433D21ABB6C1B68A1
:102B2000DB099A4207D03A6C7B6811001800FEF767
:102B300015F9002329E03B6C191DBA6BFB6B0824C7
:102B40003819039100210291002101910A2100917D
:102B5000FDF7A0FD03007B633A6C7B681100180051
:102B6000FEF7FCF8BB6C1B68DB091A007B6B934219
:102B70000AD1BB6C191D7A6B3B19180027F0B8F805
:102B8000031E01D1012300E000231800BD4615B04B
:102B900090BD80B58AB000AFF860B9607A603B60E4
:102BA00000237B623B68013B3B6225E07A6A3B6A1B
:102BB000D3185B10FB617A68FB699B00D318043360
:102BC0001B68BB61BA69396BFB681800FFF7F0FD41
:102BD00003007B617B69002B04D1BB68FA691A6032
:102BE000BB6911E07B69002B03DAFB69013B3B62A7
:102BF00002E0FB6901337B627A6A3B6A9A42D5DD67
:102C0000BB687A6A1A6007231800BD460AB080BD07
:102C100090B58FB002AF786039603B681800FDF75F
:102C200079FF031E01D13B68DEE03B68013BBB62DC
:102C3000BB6A1B780E221340DBB2062B06D1BB6A9F
:102C40001B7810221340DBB2002B01D03B68CBE095
:102C50000023FB6222E07B68FA6A10329200D358AC
:102C60007B617B69002B16D07B691B681B091C00EC
:102C70007A691023F91878683B6800932300FFF7FE
:102C800088FF03003B623B6A1800FDF752FF031EFA
:102C900001D13B6AA8E0FB6A0133FB627B685B7F82
:102CA0001A00FB6A9342D6DB7B6880229B58013B6B
:102CB0007B627B68DC6A7A6A1023F91878683B6863
:102CC00000932300FFF765FF03003B623B6A180097
:102CD000FDF72FFF031E01D13B6A85E07B685A6B2D
:102CE00008243B195A607B683A195A633B193A68C1
:102CF0001A603A687B6811001800FFF79EFE030017
:102D0000FB613B191B683B603B195A687B685A633F
:102D1000FB69002B01DA0F2366E07B685A6B0824FD
:102D20003B195A607B683A195A633B193A681A6032
:102D30007B68802299587B68DB6A5A1C7B68180084
:102D400000F0E5FA0300BB613B191B683B603B19CF
:102D50005A687B685A63BB691800FDF704FF031EBD
:102D600001D00F2340E07B688021BA695A507B680C
:102D700080229B58013B7B623B6901339B007A6A4E
:102D8000D318181D3B699B007A6AD318191D7B68FC
:102D9000DA6A3B69D31A9B001A0026F0CDFF3B6923
:102DA0007A6A9B00D31804333A681A603B68013B87
:102DB000BB62BB6A1A7810210A431A70FB691A1C9D
:102DC00001231340DAB2BB6A01210A4090011A784C
:102DD00040218A43111C021C0A431A707B68DB6A7B
:102DE0005A1C7B68DA623B681800BD460DB090BD86
:102DF00080B586B000AF786039603B681800FDF799
:102E00007BFE031E05D03B685B105A1E9341DBB26C
:102E10005BE03B681800FDF77DFE031E22D13B6896
:102E20001F2213401B229A4292415242D2B2002AE0
:102E300016D101229A401300264A1A40511E8A4197
:102E4000D2B2002A07D1244A13405A1E9341DBB262
:102E5000002B03D104E03B685B1136E0012334E032
:102E6000002332E03B68013B7B617B691B781B07D9
:102E70005B0FDBB2022B0BD0032B25D17B693B61AF
:102E80003B691B687F2293435A1E9341DBB21CE0CF
:102E90007B69FB60FB685A6810009B6819000200A0
:102EA0000B001BF0AAFC031E0CD1FB685A68100033
:102EB0009B681900002200231BF07CFC031E01D13B
:102EC000012302E0002300E001231800BD4606B004
:102ED00080BDC046880800000000080880B588B0A2
:102EE00000AFF860B9607A603B607A68FB681100F7
:102EF000180003F06FFA03007B607B681800FDF791
:102F000032FE031E01D0002320E07B681F22134005
:102F10001B2B0AD13B687A6811001800FDF7A3FF4C
:102F20000300BB613B68FB6109E07B68013B7B619F
:102F30007B690433FB617B691B68DB09BB61BB6890
:102F4000002B02D0BA69BB681A60FB691800BD4645
:102F500008B080BD80B584B000AFF860B9607A6019
:102F60007B68BA68F8680021FFF7B8FF0300180013
:102F7000BD4604B080BD000080B582B000AF78606F
:102F800039603B68072B02D03B680B2B07D1094AFD
:102F90007B680E211800FEF7AAFA030006E03A68E3
:102FA0007B681100180003F015FA03001800BD46F5
:102FB00002B080BD68B9021080B582B000AF786001
:102FC000054A7B680E211800FEF791FA03001800ED
:102FD000BD4602B080BDC04688B90210B0B596B0FB
:102FE00000AF78623962FA61FA69142318215B181C
:102FF000D9197B6A1800FEF7EEFD03007B647B6C39
:103000001B687F2293430BD07B6C1B68DB090B2B67
:1030100006D87B6C1B7820221340DBB2002B01D139
:1030200000238AE07B6C0433BB647B6C1B68DB0988
:103030001A00BB6C9B183B64BB6C5A1CBA641B78AF
:103040003B650023FB643B6D2D2B0CD1BA6C3B6CB4
:103050009A4201D3002370E00123FB64BB6C5A1C2D
:10306000BA641B783B653B6D1800FFF7D5FC031E67
:1030700001D1002361E03B6D302B0BD1BA6C3B6C6E
:103080009A4202D1FB6C002B01D0002355E00023B3
:103090007B654EE03B6D303B7B6540E0BB6C5A1C72
:1030A000BA641B783B653B6D1800FFF7B5FC031E47
:1030B00001D1002341E07B6D3B6100237B613A69D4
:1030C0007B69910F9D000D4394003A697B69121949
:1030D0006B4192185B41396D3039B960C917F9609D
:1030E000B868F96812184B41BA63FB63FB6C154A68
:1030F000944663443B60DB177B60FB6B39687A68FE
:103100001000834207D8FB6B1000834205D1BB6BD4
:103110000A00934201D900230FE0BB6B7B65BA6CB8
:103120003B6C9A42BAD3FB6C002B02D07B6D5B42A6
:103130007B657A6D3B6A1A6001231800BD4616B0A4
:10314000B0BDC046FFFFFF3F80B584B000AF7860E0
:1031500039603B681800FDF7DDFC031E01D1002338
:1031600007E03B68013BFB60FB681B785B06DB0FFD
:10317000DBB21800BD4604B080BD80B586B000AF9C
:10318000F860B9607A607A6880235B059A4205DB53
:10319000FB681800FEF744FA00232AE07B6801333D
:1031A0009900FB6805221800FDF772FD03003B61E2
:1031B0003B69002B01D100231BE07B681B011A092E
:1031C0003B69120119680F2001400A431A60BB686D
:1031D0007B6109E03A697B699B00D31804330B22B9
:1031E0001A607B6901337B617A697B689A42F1DB03
:1031F0003B691800BD4606B080BD90B58DB000AFEC
:10320000F860B9607A603B60BB68072B04D100238B
:10321000BB620023FB6206E0BB68013BBB62BB6A8A
:103220001B681B09FB620123191C7A68FB6A9A421E
:1032300001DC0023191CCBB2002B63D0FB6A002BEE
:1032400000DA01335B101A00FB6A9B187B627A6A12
:103250007B689A4216DD7B6A7B603B68002B11D04D
:103260007A683B68D31A032118001AF071FF0B002B
:103270003B623B6A002B05D03B6A0322D31A7A6873
:10328000D3187B60FB6A002B00DA01335B101A0055
:10329000FB6AD2187B6811001800FDF715FA0300CD
:1032A0007B60FB685A6B14243B195A60FB683A191F
:1032B0005A633B19BA681A607A68F96AFB681800A1
:1032C000FFF75BFF0300FB613B191B68BB603B1909
:1032D0005A68FB685A63FB69002B01D10F2312E087
:1032E000FB6A002B0BDDBB68013BBB62FB69181D51
:1032F000BB6A191DFB6A9B001A001DF047FAFB69A7
:103300000133BB60BB681800BD460DB090BD80B5F1
:1033100084B000AFF860B9607A607A68B968F8681C
:103320000023FFF76AFF03001800BD4604B080BD0C
:1033300080B586B000AFF860B9607A60BB681B6882
:10334000072B25D0BB681B68013B7B617B68002B8A
:1033500009D17A69FB6811001800FDF7FFFCBB6812
:1033600007221A6015E07B6801339A007969FB68CF
:103370001800FDF734FD03007B617B681B011A090F
:103380007B69120119680F2001400A431A6000E0AE
:10339000C046BD4606B080BD80B584B000AF786041
:1033A00039603A6880235B059A4205DB7B68180028
:1033B000FEF736F9002318E03B68191D7B680622EA
:1033C0001800FDF765FC0300FB60FB68002B01D1D2
:1033D00000230AE03B681B011A09FB681201196807
:1033E0000F2001400A431A60FB681800BD4604B074
:1033F00080BD90B58BB000AFF860B9607A60BB68F3
:10340000072B04D100233B6200237B6206E0BB68EC
:10341000013B3B623B6A1B681B097B620123191C51
:103420007A687B6A9A4201DC0023191CCBB2002B1C
:103430003ED07B6A002B00DA01335B101A007B6AF6
:10344000D2187B6811001800FDF73EF903007B607D
:10345000FB685A6B14243B195A60FB683A195A638B
:103460003B19BA681A607A68FB6811001800FFF708
:1034700093FF0300FB613B191B68BB603B195A6853
:10348000FB685A63FB69002B01D10F2311E07B6AB3
:10349000002B0ADDBB68013B3B62FB69181D3B6AE0
:1034A00004337A6A19001DF071F9FB690133BB60BE
:1034B000BB681800BD460BB090BD80B586B000AFAC
:1034C000F860B9607A60BB681B68072B24D0BB68C2
:1034D0001B68013B7B617B68002B09D17A69FB6823
:1034E00011001800FDF73AFCBB6807221A6014E0CF
:1034F0007B681A1D7969FB681800FDF770FC0300F2
:103500007B617B681B011A097B69120119680F2016
:1035100001400A431A6000E0C046BD4606B080BDC7
:1035200090B589B000AFF860B9607A603B603B68E5
:1035300003339B083B60FB685A6B14243B195A60A9
:10354000FB683A195A633B19BA681A603B689B00DA
:103550000C331900FB6801221800FDF799FB0300EA
:10356000FB613B191B68BB603B195A68FB685A63D7
:10357000FB69002B01D100231DE07B68DAB2FB69F7
:1035800010011A880E490A40111C021C0A431A80B5
:103590003B681B031A0BFB69120319680905090D27
:1035A0000A431A60FB69BA685A60FB6888229A5815
:1035B000FB699A60FB691800BD4609B090BDC04622
:1035C0000FF0FFFF80B586B000AFF860B9607A6099
:1035D0003B603B687A68B968F868FFF7A1FF0300B1
:1035E0007B617B69002B01D10F2301E07B690133F3
:1035F0001800BD4606B080BD80B584B000AFF8604D
:10360000B9607A60FA68BB6824339B00D31804332E
:1036100019687B68BA68F868FFF7D4FF03001800E0
:10362000BD4604B080BD80B582B000AF78607B68D5
:10363000002200211800FFF7DFFF03001800BD463D
:1036400002B080BD90B589B000AF786039607B680A
:10365000002200211800FFF7CFFF0300FB61FB6988
:103660001800FDF780FA031E02D13B68002B01DC35
:10367000FB6926E07B685A6B0C243B195A607B6817
:103680003A195A633B19FA691A603A687B68110063
:10369000180000F052FB0300BB613B191B68FB6183
:1036A0003B195A687B685A63BB69002B01D10F2311
:1036B00007E0FB69013B7B61BB695A1C7B699A602F
:1036C000FB691800BD4609B090BD90B589B000AF48
:1036D000786039607B68082201211800FFF78CFFB1
:1036E0000300FB61FB691800FDF73DFA031E01D0E2
:1036F000FB6935E0FB69013BBB61BB690722DA600E
:10370000BB6900221A613B68002B28DD7B685A6B7D
:103710000C243B195A607B683A195A633B19FA69C1
:103720001A603A687B6800211800FFF726FD030045
:103730007B613B191B68FB613B195A687B685A63C4
:103740007B69002B01D10F230AE0FB69013BBB61C0
:103750007B695A1CBB69DA603A68BB691A61FB690C
:103760001800BD4609B090BD80B582B000AF78604A
:103770007B689A087B6803210B4053401800BD46C4
:1037800002B080BD80B58CB000AFF860B9607A60DF
:10379000BB68FB627B68BB62FB687B62FB6A9B6801
:1037A000013B3B623B6A9B685B10FB61BB6A180094
:1037B000FFF7DAFF0200FB691340BB61BB6902330C
:1037C0003A6A9B00D31804331B687B6111E03B6AA3
:1037D0001A1D7B695B00D3183B613B691B68BA6AA1
:1037E0009A4201D13B6908E03B699B689B009B08BA
:1037F0007B617B69002BEAD100231800BD460CB029
:1038000080BD80B584B000AF786039603B685B10E4
:10381000FB60FB68002B07DB7A68FB6824339B00A6
:10382000D31804331B6809E07B68596EFB685A1C87
:1038300013009B079B1A9B00CB181B681800BD4602
:1038400004B080BDB0B59AB002AFF860B9607A60DC
:103850003B60BB681800FDF75DF903005A42534115
:10386000DBB2002B34D0BB68BB62BB6A1800FDF72B
:1038700043F9031E05D0FB68A4229B58013BFB655E
:1038800029E0BB681F221340033B182B5ED89A0027
:10389000CC4BD3181B689F46FB68A8229B58013B62
:1038A000FB6518E0FB68A0229B58013BFB6512E01A
:1038B0007B68C54AF8680E21FDF719FE0300DAE1BE
:1038C0007B68C24AF8680E21FDF711FE0300D2E1C1
:1038D000BB68013BFB65FB6D1B780E221340DBB21E
:1038E000023B5A1E9341DBB2002B38D0FB6D1B7894
:1038F0001B075B0FDBB2022B02D0032B07D026E0A5
:10390000FB68A4229B58013BFB6528E0C0467B680E
:103910001800FDF7F1F8031E12D03B1D0822B9185C
:10392000F86800220092012214F044FE0300BB65F7
:10393000BB6D1800FDF70AF9031E01D1BB6D9AE1BA
:10394000FB68AC229B58013BFB6508E0C0467B68E6
:103950009F4AF8680E21FDF7CAFD03008BE1FB6D5D
:103960001A88FF231B0113409BB2102B24D17B68C4
:103970001800FDF7C1F8031E13D07B685B10BB6411
:10398000FB6D1B69BA6C9A4200D3BDE0FB6DDB682E
:10399000013B7B647A6CBB6C9B00D31804331B68BF
:1039A00069E17A68FB6811001800FFF7CDFB031E80
:1039B00000D1A9E00B235EE1FB6D1B881B051B0EEC
:1039C000DBB2122B00D89FE0FB6D1B881B051B0E82
:1039D000DBB21B2B00D997E07B681800FDF78CF851
:1039E000031E00D186E07B685B107B65FB6D1B6965
:1039F0007A6D9A4200D387E0FB6D5B697A6DD318CC
:103A00007B65FB6DDB68013B3B653B6DDB68013B28
:103A1000FB64FB6D1B881B051B0EDBB2143B072BE5
:103A200004D89A006B4BD3181B689F46FB6C1A1D79
:103A30007B6DD3181B781800FDF761FE03001AE1B7
:103A4000FB6C1A1D7B6DD3181B785BB21800FDF759
:103A500056FE03000FE1FB6C1A1D7B6D5B00D31853
:103A600000229B5E1800FDF74AFE030003E1FB6C99
:103A70001A1D7B6D5B00D3181B881800FDF73FFEF5
:103A80000300F8E0FB6C1A1D7B6D9B00D3181A68CD
:103A9000FB6811001800FDF7D3FE0300EBE0FB6CA0
:103AA0001A1D7B6D9B00D3181A68FB681100180063
:103AB000FDF7D8FE0300DEE0FB6C1A1D7B6D9B005A
:103AC000D3181B68181C1CF0B1FD02000B00F9682C
:103AD0000800FDF71FFE0300CDE0FB6C1A1D7B6D97
:103AE000DB00D3181A685B68F9680800FDF712FE5E
:103AF0000300C0E07A68FB6811001800FFF724FBA0
:103B0000031E01D00B23B6E07A68F96DFB6818003C
:103B1000FFF738FE03003B643B6C002B00D19EE0B6
:103B20003B6CDA7A3F21002391425B41DBB2002BF0
:103B300002D03B6C5B689EE03B6CDB7A3F22934398
:103B4000DBB2802B06D13B6C5B68013BFB62FB6AFE
:103B50005B6890E03B6CDB7A3F229343DBB2C02B87
:103B600008D13B6C5A68FB6811001800FFF749FE4A
:103B7000030080E03B6C5B68013BBB63BB6B5B6835
:103B80007B637B6B0B2B01D10B2374E03B68002B19
:103B900022D0FB681A69FB681B69043B12681A6033
:103BA000FB681B697A6B1A60FB681B691A1FFB684C
:103BB0001A6100237B627B6A01335B010F2213438E
:103BC00059E0C046B0CC021098B90210BCB902103E
:103BD000E4B9021014CD0210FB685A6B1C243B1987
:103BE0005A60FB683A195A633B197A6B1A60FB6892
:103BF0005A6B14257B195A60FB687A195A63BA68A4
:103C00007B191A60FB6802211800FDF71EF80300FB
:103C10003B637B191B68BB607B195A68FB685A635E
:103C20003B191B687B633B195A68FB685A633B6B03
:103C3000002B01D00F231EE07A6BFB6811001800E7
:103C400003F0A6FFBA68FB681100180003F0A0FF9C
:103C5000FB680021180003F0ADFF03000BE0FB6DD3
:103C60005B68FB63FB6B072B03D0FB6B013BFB65C6
:103C700075E6C0460B231800BD4618B0B0BDC0465F
:103C800080B584B000AFF860B9607A607A68B968CE
:103C9000F8680023FFF7D6FD03001800BD4604B006
:103CA00080BD80B586B000AFF860B9607A60BB684F
:103CB0001800FCF72FFF031E01D1002324E0BB688E
:103CC000013B7B617B691B780E221340DBB2022B28
:103CD00001D0002318E07A687969FB681800FFF7C3
:103CE00051FD03003B613B69002B01D001230BE038
:103CF0007B695B68BB60BB68072B03D0BB68013B7B
:103D00007B61E8E7C04600231800BD4606B080BDD1
:103D100080B582B000AF78607B68012B01DC0023A6
:103D200007E07B68013B1800FCF72EFD03001F2213
:103D3000D31A1800BD4602B080BD80B58AB000AF6E
:103D4000786039603B681800FFF7E2FF0300FB6111
:103D50000122FB699A401300013BBB61BB6903333D
:103D60007B613A6813005B009B187A69D3183B614A
:103D70003A697B6800211800FFF7FFF90300FB6038
:103D8000FB68002B01D1002349E00020FDF7B7FCC0
:103D90000200FB685A60BB691800FDF7B0FC020026
:103DA000FB689A6000237B620AE07B6A0233FA6850
:103DB0009B00D318043300221A607B6A01337B62B4
:103DC0007A6ABB699A42F0DD00233B6200237B6282
:103DD00011E0BB69D91C7A6A13005B009B18CB18F1
:103DE0009B00FA68D31804333B623B6A17221A60BF
:103DF0007B6A01337B627A6A3B689A42E9DB7B69C2
:103E00009B009B085A0093009B081A003B6A920093
:103E100092089968890F89070A439A60FB6818001D
:103E2000BD460AB080BD90B58DB000AFF860B960F6
:103E30007A60BB689B68013B7B627A6AFB689A4246
:103E400070D3FB689B681A007B6A9A426AD97B6AC6
:103E50009B685B103B623B6A002B02D17B68002BA6
:103E600062D17B6A5B685B10FB610023FB620DE043
:103E7000FB6A9C1C0020FDF742FC01007A6AA3004B
:103E8000D31804331960FB6A0133FB62FA6A3B6A98
:103E90009A42EDDD0023FB620023BB623DE03B6AFA
:103EA000D91CFA6A13005B009B18CB18BB61BB6975
:103EB0009B007A6AD31804337B617B691B68172BDC
:103EC00028D07B691B681800FFF74EFC02003B6A94
:103ED00013403B613B6902337A6A9B00D318043379
:103EE0001B689B009A087B69920092089968890F69
:103EF00089070A439A603B699C1CBB691800FDF75F
:103F0000FEFB01007A6AA300D31804331960BB6A70
:103F10000133BB62FB6A0133FB62BA6AFB699A42F6
:103F2000BDDB02E0C04600E0C046BD460DB090BD1E
:103F300090B58DB000AF786039603B689B68013BFD
:103F40007B627B6A5B685B103B623B6A002B0CD137
:103F50003B689A687B6888215B589A426FD07B687F
:103F600088229A583B689A6069E07B6A9B685B107C
:103F7000FB613B6A1800FFF7CBFE0300BB61012227
:103F8000BB699A4013005A1EFB6911001800FCF728
:103F9000ABFB03007B617B69D91C3A6A13005B00B1
:103FA0009B18CB183B617B6A1B681B091A003B6995
:103FB000934246DA7B691800FDF7A1FB02007B6A99
:103FC0009A600023FB620023BB6225E0FB69D91CD9
:103FD000FA6A13005B009B18CB189B007A6AD3180F
:103FE0000433FB60FB681B68172B12D07B69D91C5C
:103FF000BA6A13005B009B18CB189B007A6AD3182F
:104000000433BB60BB68FA6813CA13C3BB6A0133CD
:10401000BB62FB6A0133FB62BA6A3B6A9A42D5DB38
:104020003B68083319003A697B681800FFF780F98C
:1040300039687B6800221800FFF7F5FE02E0C046F1
:1040400000E0C046BD460DB090BD90B58DB000AF4C
:10405000786039603B68013BBB62BB6A9B68013B8F
:104060007B627A6A7B689A4207D37B689B681A00F6
:104070007B6A9A4201D900236BE07B685A6B082463
:104080003B195A607B683A195A633B193A681A60BF
:104090007B6A1B681B091A007B6800211800FFF768
:1040A0006CF803003B623B191B683B603B195A6884
:1040B0007B685A633B6A002B02D101235B4248E0D4
:1040C0003B6A181D7B6A191D7B6A1B681B099B00D4
:1040D0001A001CF05BFB3B6A5B685B10FB613B6A90
:1040E0009B685B10BB610023FB6226E0BB69D91CA7
:1040F000FA6A13005B009B18CB187B617B699B00FD
:104100003A6AD31804333B613B69DB7A3F2293431D
:10411000DBB2C02B0ED13B695A687B6811001800D6
:10412000FFF76FFB02003B695A603B69DA7A3F2177
:104130000A40DA72FB6A0133FB62FA6AFB699A424F
:10414000D4DB3B68013BBB623B6A5A1CBB6A9A608A
:1041500000231800BD460DB090BD80B584B000AFFF
:1041600078607B681B681B09033B9B007A68D31847
:104170000433BB60BB681B68172B06D1BB689B6808
:104180009B009B085B10FB6003E07B681B681B09BE
:10419000FB60FB681800BD4604B080BDB0B594B0AC
:1041A00000AFF860B9607A60BB68013BBB63BB6B72
:1041B0009B68013BFB64FB6C5B685B107B63FB6C87
:1041C0009B685B10BB64FB6C1B681B09033B9B007B
:1041D000FA6CD31804333B633B6B1B68172B00D17D
:1041E000D4E0BB6B9A68FB6888215B589A4239D14E
:1041F000FB685A6B1C243B195A60FB683A195A63D6
:104200003B19BA681A60FB685A6B14257B195A600F
:10421000FB687A195A637B197A681A60FB68012176
:104220001800FFF78AFD0300FB647B191B687B60A5
:104230007B195A68FB685A633B191B68BB603B19C2
:104240005A68FB685A63FB6C002B01D1002304E120
:10425000BB68013BBB63FB6C5A1CBB6B9A600323BE
:104260003B6486E0FB6C1B681B093B643B6C0333BF
:104270007B64BB6CFB63BB6C01335B007A6B9A4263
:104280000ADBBB6C01335B00013BFB63FA6BBB6C6D
:10429000D31A7A6CD3187B64FB685A6B1C243B19C5
:1042A0005A60FB683A195A633B19BA681A60FB688E
:1042B0005A6B14257B195A60FB687A195A637B196B
:1042C0007A681A60BB6B9968FB6B03337A6CF86889
:1042D000FEF793FF0300FB627B191B687B607B1971
:1042E0005A68FB685A633B191B68BB603B195A68E4
:1042F000FB685A63FB6A1800FCF735FC031E01D00B
:104300000023AAE0BB68013BBB63BB6BFA6A9A60FF
:10431000BB6B9B68013BFB64FA6BBB6C9A4228D079
:10432000FB6B03339B00FA6CD318181DBB6C033373
:104330009B00FA6CD318191DBB6C03333A6CD31A6B
:104340009B001A0025F0F8FCFA6BBB6CD31A3A6C90
:10435000D3183B64FB6BBB64BB6C1800FDF7CFF953
:104360000200FB6C9A60B96BFB6800221800FFF733
:104370005AFDFB6C1B681B09033B9B00FA6CD318AE
:1043800004333B633B6B17221A6005E03B6B9B6871
:104390009B009B085B103B643B6C9B00FA6CD31842
:1043A0000433BB62BB6A7A681A60BB6A0B225A602C
:1043B000BB6ADA7A3F210A40DA727B681800FFF79D
:1043C000D3F90200BB6C13407B627B6A0233FA6C48
:1043D0009B00D31804331B689B009A08BB6A9200A9
:1043E00092089968890F89070A439A607B6A9C1C26
:1043F0003B6C1800FDF783F90100FA6CA300D31899
:10440000043319607B6B01331800FDF778F9020063
:10441000FB6C5A603B6C03333B64FB6C1B681B09F1
:104420001A003B6C934217DAFB6C1B681B09033BB9
:104430009B00FA6CD31804333B633B6C9B009B08D6
:104440005A0093009B081A003B6B920092089968EF
:10445000890F89070A439A60BB6A1800BD4614B0E9
:10446000B0BD0000F0B595B000AFF860B9607A60FB
:104470003B60FB685A6B2C243B195A60FB683A1965
:104480005A633B19BA681A60FB685A6B24257B197A
:104490005A60FB687A195A637B197A681A60FB685C
:1044A0005A6B1C26BB195A60FB68BA195A63BB19B0
:1044B0003A681A60FB685A6B14217B185A60FB68D3
:1044C0007A185A637B18BA6E1A60BA68FB681100D2
:1044D0001800FFF7BAFD03003B641422BB181B68E9
:1044E000BB66BB185A68FB685A63BB191B683B6004
:1044F000BB195A68FB685A637B191B687B607B1980
:104500005A68FB685A633B191B68BB603B195A68C1
:10451000FB685A633B6C002B01D00F23D7E1FB6E85
:104520000122134000D1D9E0BB68013B19007A6831
:10453000FB681800FFF726F90300FB64FB6C002BF7
:1045400000D1CBE0FB6E0422134019D0FB6CDB7A68
:104550003F229343DBB2002B03D1FB6C3A685A60D5
:10456000ACE1FB6CDB7A3F229343DBB2802B14D1AE
:10457000FB6C5B68013BBB63BB6B3A685A609DE1B7
:10458000FB6E1822134000D198E1FB6CDB7A3F22CE
:104590009343DBB2402B09D000E0C046CE4AFB6813
:1045A0000E211800FCF7A3FF030090E1FB6C5B6891
:1045B000013BBB64BA6CFB689A429B415B42DBB235
:1045C000002B09D1FB689B681900BA6C00238A4252
:1045D0005B41DBB2002B71D0FB685A6B2C243B197A
:1045E0005A60FB683A195A633B19BA681A60FB684B
:1045F0005A6B24257B195A60FB687A195A637B1918
:104600007A681A60FB685A6B1C26BB195A60FB68F3
:10461000BA195A63BB193A681A60FB685A6B1421BD
:104620007B185A60FB687A185A637B18BA6E1A6056
:10463000FB68022200211800FEF79FFD0300FB63C8
:104640001422BB181B68BB66BB185A68FB685A6308
:10465000BB191B683B60BB195A68FB685A637B191E
:104660001B687B607B195A68FB685A633B191B689F
:10467000BB603B195A68FB685A63FB6B002B01D186
:104680000F2324E1BB68013B19007A68FB6818001E
:10469000FFF778F80300FB64FB6C5B68013BBB64CD
:1046A000BB6C5A68FB6B5A60BB6C9A68FB6B9A6078
:1046B000FB6B5A1CFB6C5A60FB6BBB64FB6E0822E5
:1046C000134002D0BB6C3A685A60FB6E1022134054
:1046D00000D1F3E0BB6CBA6E9A60EFE0FB6E18227B
:1046E000134061D001237B64FB685A6B2C243B1977
:1046F0005A60FB683A195A633B19BA681A60FB683A
:104700005A6B24257B195A60FB687A195A637B1906
:104710007A681A60FB685A6B1C26BB195A60FB68E2
:10472000BA195A63BB193A681A60FB685A6B1421AC
:104730007B185A60FB687A185A637B18BA6E1A6045
:10474000FB68022200211800FEF717FD0300BB647E
:104750001422BB181B68BB66BB185A68FB685A63F7
:10476000BB191B683B60BB195A68FB685A637B190D
:104770001B687B607B195A68FB685A633B191B688E
:10478000BB603B195A68FB685A63BB6C002B01D1B4
:104790000F239CE0BB6C3A685A60BB6CBA6E9A609F
:1047A000BB6C01333B6058E0FB688C229B58BA68B5
:1047B0009A4250D102237B64FB685A6B2C243B192C
:1047C0005A60FB683A195A633B19BA681A60FB6869
:1047D0005A6B24257B195A60FB687A195A637B1936
:1047E0007A681A60FB685A6B1C26BB195A60FB6812
:1047F000BA195A63BB193A681A60FB680722082184
:104800001800FCF745FA03007B63BB191B683B608B
:10481000BB195A68FB685A637B191B687B607B195C
:104820005A68FB685A633B191B68BB603B195A689E
:10483000FB685A637B6B002B01D10F2347E07B6B36
:104840001A7810210A431A707B6B3A685A607B6BA6
:1048500001333B6001E000237B64FB685A6B1C243E
:104860003B195A60FB683A195A633B193A681A6057
:104870007A68B968FB681800FFF790FC0300FB64D6
:104880003B191B683B603B195A68FB685A63FB6C19
:10489000002B01D10F231AE07B6C1A1C0323134059
:1048A000DAB2FB6C9001DA7A3F210A40111C021C3B
:1048B0000A43DA72FB6C3A685A6000E0C046FB6E4D
:1048C0000222134002D0FB6C5B6800E00B2318004F
:1048D000BD4615B0F0BDC0461CBA021090B587B0F9
:1048E00002AFF860B9607A603B603B687A68B9688B
:1048F000F8680524019407240094FFF7B3FD030032
:104900001800BD4605B090BD90B587B002AFF86005
:10491000B9607A603B607B6A012213433C687A6825
:10492000B968F86801933B6A00932300FFF79AFD8A
:1049300003001800BD4605B090BD000090B58BB0D7
:1049400002AFF860B9607A60FB688C229B58013B2B
:10495000FB61BA68F969FB681800FEF713FF0300F2
:10496000BB61BB69002B1FD0BB69DB7A3F2293433D
:10497000DBB2802B07D0BB68164AF8680C21FCF725
:10498000B6FD030022E07B68002B0AD0BB695B68A0
:10499000013B7B617B695B68172B02D17B690B2232
:1049A0005A60BB695B6811E0FB688C2299587B6890
:1049B000002B01D00B2300E01723BA68F868062407
:1049C000019407240094FFF74DFD03001800BD4635
:1049D00009B090BD44BA0210F0B5B1B002AFF860B2
:1049E000B9607A603B60BB681800FCF793F803007D
:1049F0005A425341DBB2002B46D00023AC22BA18F6
:104A00001360BB687B677B6F1800FCF775F8031EAB
:104A100007D0FB68A4229B58013BB422BA1813604C
:104A2000E2E2BB681F221340033B182B5FD89A00B9
:104A3000C44BD3181B689F46FB68A8229B58013BB8
:104A4000B422BA181360CFE2FB68A0229B58013B46
:104A5000B422BA181360C7E2FB68AC229B58013B32
:104A6000B422BA181360BFE27B68B74AF8680E2117
:104A7000FCF73DFD03007BE37B68B44AF8680E2138
:104A8000FCF735FD030073E30123AC203A181360F3
:104A9000BB68013BB4217A1813607B181B681B7834
:104AA0000E221340DBB2023B5A1E9341DBB2002BB5
:104AB00026D000233A1813607B181B681B781B074D
:104AC0005B0FDBB2022B02D0032B08D010E0FB6897
:104AD000A4229B58013BB422BA18136084E2FB68FD
:104AE000AC229B58013BB422BA1813607CE2C0464A
:104AF0007B68974AF8680E21FCF7F9FC030037E35E
:104B0000B4243B191B681A88FF231B0113409BB276
:104B1000102B00D099E07B681800FBF7EDFF031E17
:104B200000D188E07B685B1098217A1813603B19EC
:104B30001B681B697A1812689A4211D23B191B68CC
:104B4000DB68013B9022B8180360BB181A687B1819
:104B50001B689B00D31804333A681A600B2307E3E1
:104B6000B4217B181B681B6998203A1812689A4276
:104B700000D079E1FB685A6B68243B195A60FB68E6
:104B80003A195A633B19BA681A60FB685A6B602578
:104B90007B195A60FB687A195A637B193A681A6064
:104BA0007B181B68D9683B181B6801331A00FB6827
:104BB0001800FEF7ACFB030094217A1813607B19F0
:104BC0001B683B607B195A68FB685A633B191B687A
:104BD000BB603B195A68FB685A637B181B68180056
:104BE000FBF7C1FF031E01D00F23C1E2BB68013BED
:104BF000B4217A1813607B181B689422BA181268C3
:104C0000DA607B181B68DB68013B9022B8180360F0
:104C1000BB181A689823FB181B689B00D318043331
:104C20003A681A607B181B681B695A1C7B181B6842
:104C30001A610B239CE27A68FB6811001800FEF7EA
:104C400083FA031E00D11BE111E1B4243B191B6858
:104C50001B881B051B0EDBB2122B00D80FE13B1982
:104C60001B681B881B051B0EDBB21B2B00D906E142
:104C70007B681800FBF740FF031E00D1EBE07B6868
:104C80005B10A422BA181360FB685A6B40217B1892
:104C90005A60FB687A185A637B18BA681A60FB6816
:104CA0005A6B48217B185A60FB687A185A637B1844
:104CB0003A681A603B191B681B881B051B0EDBB288
:104CC000132B04D01BDB1A3B012B18D80BE03A68DE
:104CD0005C23F918FB68180001F0E8FE0300A82225
:104CE000BA18136017E03A685023F918FB681800E7
:104CF00001F036FD0300A822BA1813600BE03A68F1
:104D00005C23F918FB68180001F09CFE0300A82240
:104D1000BA181360C0464822BB181B683B60BB181A
:104D20005A68FB685A634022BB181B68BB60BB18FB
:104D30005A68FB685A63A823FB181B68002B09D02C
:104D40000F2315E234CD021070BA021094BA02108B
:104D5000BCBA0210BB68013BB4217A1813607B18FF
:104D60001B681B69A4203A1812689A4200D37DE0A0
:104D70007B181B685B693A181268D3183A181360DD
:104D80000A00BB181B68DB68013BA0217818036090
:104D90007B181B68DB68013B9C2179180B60BB18F2
:104DA0001B681B881B051B0EDBB21B2B43D00ADCC8
:104DB0001A2B2ED007DC172B02DC162B0FDA02E0A1
:104DC000183B012B18D9F96D9C23FB181B681A1D81
:104DD000A423FB181B68D318CAB21A7039E0F96D06
:104DE0009C23FB181B681A1DA423FB181B685B007F
:104DF000D3188AB21A802CE0F96D9C23FB181B682B
:104E00001A1DA423FB181B689B00D3180A001A6004
:104E10001FE03A6D7B6D9C2179180968081DA4215B
:104E200079180968890044181000190019F08AFDE2
:104E3000031C23600DE09C23FB181B681A1DA42390
:104E4000FB181B68DB00D1183A6D7B6D0A604B6064
:104E5000C0460B238CE17A68FB6811001800FEF74E
:104E600073F9031E0BD002E0C04600E0C046C24A00
:104E7000FB680E211800FCF73AFB030078E1C046FE
:104E80007A68B423FB181968FB681800FEF77AFCEF
:104E90000300B0203A1813603B181B68002B00D1A8
:104EA00091E03B181B68DA7A3F21002391425B4175
:104EB000DBB2002B19D03B181A68FB689A429B4161
:104EC0005B42DBB2002B31D1FB689B6819003B18B9
:104ED0001A6800238A425B41DBB2002B26D13B18C3
:104EE0001B683A685A600B2342E1B0217B181B68AB
:104EF000DB7A3F229343DBB2802B0CD17B181B68FB
:104F00005B68013B8C22B9180B60BB181B683A68C0
:104F10005A600B232CE1B023FB181B68DB7A3F227D
:104F20009343DBB2C02B00D07CE000E0C046FB68BE
:104F30005A6B28243B195A60FB683A195A633B198B
:104F4000BA681A60FB685A6B30257B195A60FB6897
:104F50007A195A637B197A681A60FB685A6B38268B
:104F6000BB195A60FB68BA195A63BB193A681A60D0
:104F7000BA68FB6811001800FFF767F80300882182
:104F80007A181360BB191B683B60BB195A68FB6831
:104F90005A637B191B687B607B195A68FB685A63EC
:104FA0003B191B68BB603B195A68FB685A637B1846
:104FB0001B68002B01D00F23DAE0BB68013BB42251
:104FC000BA1813605CE7B4217B181B685B68842205
:104FD000B8180360BB181B68072B00D1AFE0BB18E3
:104FE0001B68013B7A1813607A68B423FB181968B0
:104FF000FB681800FEF7C6FB0300B022B9180B606F
:10500000BB181B68002BDED0BB181B68DB7A3F2265
:105010009343DBB2403B5A425341DBB2002B00D1F9
:105020008FE000E0C046B023FB181B685B68013BC3
:105030008022B9180B60BB181B689B68FB67C823EC
:1050400008229B18DB191B68002B1DD0FB681A690E
:10505000FB681B69083B12681A60FB681B69043B0C
:10506000FA6F1A60FB681B693A681A60FB681B6973
:10507000083B1A00FB681A61404B3B673B6F0133EA
:105080005B010F22134373E0FB685A6B20243B192A
:105090005A60FB683A195A633B193A681A60FB6810
:1050A0005A6B18257B195A60FB687A195A637B1969
:1050B000FA6F1A60FB685A6B1026BB195A60FB68BE
:1050C000BA195A63BB19BA681A60FB680321180041
:1050D000FBF7BBFD0300BB67BB191B68BB60BB19BB
:1050E0005A68FB685A637B191B68FB677B195A680F
:1050F000FB685A633B191B683B603B195A68FB68A5
:105100005A63BB6F002B01D00F2331E03A68FB6874
:105110001100180002F03CFDFA6FFB681100180046
:1051200002F036FDBA68FB681100180002F030FD8D
:10513000FB680121180002F03DFD030018E0C046A5
:1051400000E0C046AC23FB181B68002B05D1FB68B0
:105150001800FDF731FF03000AE03B687A68B96880
:10516000F868042401940B240094FFF77BF90300F2
:105170001800BD462FB0F0BDE0BA021001000200D9
:1051800090B587B002AFF860B9607A603B607A682A
:105190008023DB059A4207D30C4AFB680B211800D9
:1051A000FCF7A5F903000DE07B681800FCF7A7FAEF
:1051B00004003B68B968F868002200922200FFF7FB
:1051C0000BFC03001800BD4605B090BD08BA0210E4
:1051D00090B595B000AFF860B9607A60FB685A6B23
:1051E00018243B195A60FB683A195A633B19BA688C
:1051F0001A607A68FB681100180001F0ADF903002D
:105200007B603B191B68BB603B195A68FB685A639B
:105210007B681800FBF7A7FC031E01D07B680AE13E
:10522000BB681800FBF776FC031E01D1232302E1C3
:10523000BB68013BFB64FB6C1B780E221340DBB2A6
:10524000022B01D02323F6E0FB6C9B68013B7B64BF
:105250007B6C9B685B107B637B681800FEF784FAAD
:1052600002007B6B13403B633B6B02337A6C9B0009
:10527000D31804331B685B103B6401235B42FB6360
:10528000D4E07B6C1A1D3B6C9B00D318BB64BB6CD9
:105290001B687A689A4200D0C0E07A6CFB689A4238
:1052A00005D3FB689B681A007B6C9A422BD8FB687D
:1052B0005A6B10243B195A60FB683A195A633B1920
:1052C000BA681A60BA68FB6811001800FEF7BDFEE4
:1052D0000300FB623B191B68BB603B195A68FB6803
:1052E0005A63FB6A002B01D00F23A4E0BB68013B8B
:1052F000FB64FB6C9B68013B7B647B6C1A1D3B6C05
:105300009B00D318BB64FB6B002B12DB7B6C1A1D5C
:10531000FB6B9B00D318BB62BB6C9B689B009A081D
:10532000BB6A920092089968890F89070A439A60BC
:105330000BE0BB6C9B689B009A083B6B023311002F
:105340007A6C9B00D318043319607B6C1800FEF74D
:1053500004FF0300BB637B6C5B685B107B627B6A52
:10536000013B1800FCF7CBF902007B6C5A60BB6C68
:10537000DA7A3F210A40DA72BB6C17221A60BB6CE2
:105380000B225A600DE0BB6B033B9B007A6CD31879
:1053900004333B623B6A1B68172B08D1BB6B033B92
:1053A000BB637B6B0333BA6B9A42ECDC00E0C04614
:1053B0007B6C1B681B091A00BB6B934217DA7B6C72
:1053C0001B681B09033B9B007A6CD31804333B62B8
:1053D000BB6B9B009B085A0093009B081A003B6A1A
:1053E000920092089968890F89070A439A607B6B3B
:1053F000D91C7A6A13005B009B18CA187B6C1B6867
:105400001B0900D501335B109A4205DAFA6CFB6880
:1054100011001800FEF78CFD23230CE03B6CFB63AE
:10542000BB6C9B689B009B085B103B643B6C002B38
:1054300000D026E723231800BD4615B090BD90B5D7
:1054400091B002AF786039603B689B687B627B6A91
:10545000002B00DAA2E07B68996C7A6A13005B008B
:105460009B189B00CB180A229B5E3B627B685A6E9E
:105470003B6A9B00D3181B687B637B6B1800FBF7B0
:1054800058FB031E01D17B6B9DE03B681B69180034
:10549000FBF74FFB031E21D13B681B69013BFB61FE
:1054A000FA697B6811001800FFF7C9FF0300FB626F
:1054B0007B689A6CFB699B6819000B005B005B18AA
:1054C0009B00D3180A229B5EBB617A68BB692433B8
:1054D0009B00D31804331B68BB6205E00723FB6203
:1054E0007B6894229B58BB627A683B6A24339B009A
:1054F000D31804331B683B633B6B1800FBF719FBA5
:10550000031E21D07B685A6B0C243B195A607B68C0
:105510003A195A633B19FA6A1A60B96A7868002323
:105520000022FEF74FF803003B633B191B68FB6248
:105530003B195A687B685A637A683B6A24339B003C
:10554000D31804333A6B1A603B6B013B7B613B68B9
:10555000DB681800FBF7EDFA031E03D13B68DA683D
:105560007B699A60FB6A1800FBF7E3FA031E03D01D
:105570007B68A0229B58FB62FA6A796A78680723E5
:105580000093002302F06DFA03007B637B685A6E80
:105590003B6A9B00D3187A6B1A6005E07B681800A1
:1055A000FEF741F803007B637B6B013B7B613B684B
:1055B0005B681800FBF7BDFA031E03D13B685A680D
:1055C0007B699A607B6B1800BD460FB090BD90B5AB
:1055D00089B002AF7860396000233B6137E03A68F8
:1055E0003B699B00D31804331B68FB603B690133A4
:1055F0003A689B00D31804331B687B617A697B6827
:1056000011001800FCF761F9031E0AD07B69013B09
:105610001A007B6811001800FFF711FF03007B617F
:1056200006E07B69072B03D17B688C229B587B614A
:105630007B688C2299587B69FA6878680424019405
:1056400007240094FEF70EFF3B6902333B613B6881
:105650001B681B091A003B699342C0DBC046C04669
:10566000BD4607B090BD80B584B000AFF860B960AA
:105670007A60C046BD4604B080BD000080B58CB0E5
:1056800000AFF860B9607A603B600423BB62BB6A1C
:105690005B421A00BB681340BB60FB687B627B6A9D
:1056A0009822002118001BF06BF87B68DB699AB226
:1056B0007B6A1A847B6A94331A007B6A1B8C9B007A
:1056C000D2187B6A5A667B6A94331A007B6A1B8CF9
:1056D000DB00D2187B6A1A607B6A1A687B6A5A60A0
:1056E000FA68BB68D2187B6A9A607B6A9A687B6AA0
:1056F0001A617B6A1A697B6ADA607B6A1A697B6A5B
:105700005A617B6A802292009A61796A01220023A1
:105710000A654B657B6A874ADA650023FB620CE009
:10572000796AFA6A13005B009B189B00CB186833F8
:1057300007221A60FB6A0133FB62FB6A012BEFDD73
:105740003B68002B58D07B6A5A687B6ADA637B68B7
:105750005B693B627B6A58687B6819683B6A9B009F
:105760001A001BF013F87B6A5A683B6A9B00D21838
:105770007B6A5A607B681A683B6A9B00D318FB619E
:10578000FB691B681B091A007B6A00211800FDF7E2
:10579000F4FC0300BB61BB695A1C7B6A80215A5030
:1057A0000023FB621AE0FA69FB6A9B00D3180433FA
:1057B0001B68013B7B617B6ADA6B7B681B687969DC
:1057C000CB1AD3187B617B695A1CB969FB6A9B00B1
:1057D000CB1804331A60FB6A0133FB62FB691B6858
:1057E0001B091A00FB6A9342DDDBFB691B681B097E
:1057F0001A007B6ADA621DE07B681A687B6ADA63EA
:105800007B681A687B685B699B00D2187B6A1A64A4
:105810007B6A01225A777B685A687B6A9A647B6844
:105820009A687B6ADA647B6A8022072199507B6AD6
:105830000022DA627B6A84220B2199507B6A032260
:1058400000211800FDF799FC03003B610020FBF7E5
:1058500056FF02003B695A600020FBF750FF020030
:105860003B699A600020FBF74AFF02003B69DA605F
:105870003B695A1C7B6A88215A500023FB620AE06C
:105880007A6AFB6A24339B00D318043307221A6018
:10589000FB6A0133FB627B6A1B8C1A00FB6A934232
:1058A000EEDB0023FB6209E07B6A5A6EFB6A9B0019
:1058B000D31807221A60FB6A0133FB627B6A1B8CD8
:1058C0001A00FB6A9342EFDB7B6A1800FDF7ABFE20
:1058D00002007B6A94215A507B6A1800FDF7A3FEF0
:1058E00002007B6AA0215A507B6A1800FDF79BFEDC
:1058F00002007B6A8C215A50002280231B06796AA1
:105900000800FBF7BBFE02007B6A90215A503B68FF
:10591000002B0AD17B681A687B689B699B00D218B0
:105920007B6A11001800FFF752FE7B6A1800BD4623
:105930000CB080BD6756001080B584B000AFF86031
:10594000B9607A607A68B968F8680023FFF796FE54
:1059500003001800BD4604B080BD80B586B000AF1E
:10596000F860B9607A60BB681B687B617B69072B54
:105970000DD07B69013B3B613B699B687A689A4229
:1059800001D17B6924E03B695B687B61EEE7C0463F
:10599000FB6807220C211800FBF77AF903003B6132
:1059A0003B69002B01D10F2312E03B691A781021CB
:1059B0008A431A703B697A689A60BB681A683B69C7
:1059C0005A603B6901337B61BB687A691A607B6905
:1059D0001800BD4606B080BD0CB480B584B000AFE1
:1059E000786039607B681B68FB60FB6801333A684C
:1059F0009A4217D91C23FB18BB603A68FB68D31A7C
:105A00001900BB68BA69F868FBF728FDFB68180045
:105A100024F0B2FA0200FB689B18FB607B68FA680E
:105A20001A6000E0C046BD4604B080BC08BC02B0AD
:105A3000184780B582B000AF786039603B681800C5
:105A4000BD4602B080BD80B58AB000AFF860B960D5
:105A50007A603B60BB681B681800FBF75BF8031EAD
:105A60000AD1BB681B681F221340132B6AD1BB6885
:105A70001B685B117B6243E0BB681B68013BFB61F9
:105A8000FB691B780E221340DBB2022B5CD1FB6951
:105A90001A88FF231B0113409BB2302B25D1FB69D1
:105AA000DB68013BBB617B68002B0FD0BB695B6887
:105AB000072B07D1FB681B211800FBF76FF80300C9
:105AC0003B620DE0BB695B683B6209E0BB691B6838
:105AD0005B021B0C9BB21800FBF711FE03003B623C
